:100000000216F8C293C29275AD0C22021929121081
:100010005C900010E0FF900091E0FEC39F5013EE53
:1000200025E02436F9C3E7943219E794004003E051
:10003000FF22900098E0FF25E02416F9D3E79432E0
:1000400019E794004001227FFF22FF021F73AD07D2
:10005000ED25E02468F582E43400F583E07F00FEBE
:10006000ED25E02469F582E43400F583E02FFFE418
:100070003EFE22020CD3900194EFF0E4900197F041
:10008000A3F07F01121DF6900199EEF0A3EFF0E4CA
:10009000900194F0900010E0FF900194E0FEC39F67
:1000A00040030203E2900091E0C394F05013EE2568
:1000B000E02436F9D3E7941419E7940040030201D1
:1000C00060900194E0FF12004E900197EEF0A3EFD4
:1000D000F0900194E0FF25E02453F582E43401F52B
:1000E00083E0FCA3E04C701FEF25E02445F8E6FC1C
:1000F00008E6FDEF25E02443F582E43401F583ECC6
:10010000F0A3EDF002018C900194E0FD25E0244382
:10011000F582E43401F583E0FEA3E0FFED25E02461
:1001200045F8E6FC08E6FD121F3AAC06AD07900163
:1001300097E0C313FEA3E013FFD3ED9FEC9E404C6A
:10014000900194E0FF25E02445F8E6FC08E6FDEF89
:1001500025E02443F582E43401F583ECF0A3EDF0CF
:10016000900194E0FF25E02453F582E43401F58307
:10017000E4F0A3F0EF25E025E02423F582E4340148
:10018000F58312079D000000000203D9900194E05E
:10019000FF25E02445F8E6FC08E6FDA3ECF0A3ED1E
:1001A000F0788CE61846705DEF25E02455F8E6FE01
:1001B00008E6FF121F3A900197E0FCA3E0FDC39F01
:1001C000EC9E5041900194E0FF25E02446F9EF2594
:1001D000E02455F8E6FA08E6FBC397EA1997500DB4
:1001E000ECC313FEED132BFFEE3AA380149001979E
:1001F000E0C313FEA3E013FFC3EB9FFFEA9E900151
:1002000095F0A3EFF0900194E0FF25E02446F9EF8C
:1002100025E02455F8E6FE08E6FFD397EE1997503F
:1002200003020368E025E02446F8C3EF96FDEE18CC
:1002300096FC900197E0FEA3E07802CEC313CE13A4
:10024000D8F9FFD3ED9FEC9E500302036890019410
:10025000E0FB24AFF582E43401F583E070369001D1
:1002600094E0FF25E02453F582E43401F583E4F0C3
:10027000A3F0EF25E025E02423F582E43401F583A3
:1002800012079D0000000074AF2BF582E43401F5E5
:10029000837401F0900194E0FF25E02453F582E49B
:1002A0003401F583E475F001120566EF25E025E0E1
:1002B0002423F582E43401F583C083C082E0F8A3EF
:1002C000E0F9A3E0FAA3E0FBC000900194E025E090
:1002D0002445F8E6FE08E6FFE4FCFDD000EB2FFF26
:1002E000EA3EFEED39FDEC38FCD082D08312079156
:1002F000900194E025E02453F582E43401F583E095
:10030000FEA3E0FFD39407EE9400406BAB07AA0670
:10031000E4F9F8900194E025E025E02423F582E457
:100320003401F583E0FCA3E0FDA3E0FEA3E0FF12AF
:10033000061D900194E0FD25E02455F8A60608A6C8
:1003400007ED25E02453F582E43401F583E4F0A3BE
:10035000F0ED25E025E02423F582E43401F5831255
:10036000079D00000000800F900194E024AFF5820B
:10037000E43401F583E4F0900194E0FF24AFF582CA
:10038000E43401F583E07051EF25E025E02423F506
:1003900082E43401F583C083C082E0F8A3E0F9A3CE
:1003A000E0FAA3E0FB900195E0FEA3E0FFE4FCFD92
:1003B000EB2FFFEA3EFEED39FDEC38FCD082D08316
:1003C000120791900194E025E02453F582E4340172
:1003D000F583E475F001120566900194E004F002E3
:1003E0000094D3788CE6940018E69400400708E661
:1003F0001618700116788CE618466016900199E080
:10040000FEA3E07802CEC313CE13D8F9F0EE90012C
:1004100099F0E4900194F0900010E0FF900194E0D6
:10042000FEC39F40030204B874AF2EF582E434018A
:10043000F583E0707AEE25E02453F582E43401F58B
:1004400083E0FEA3E0FF900199E0FCA3E0FDC3EF91
:100450009DEE9C405AAB07AA06E4F9F8900194E09F
:1004600025E025E02423F582E43401F583E0FCA3B4
:10047000E0FDA3E0FEA3E0FF12061D900194E0FD65
:1004800025E02455F8A60608A607ED25E02453F537
:1004900082E43401F583E4F0A3F0ED25E025E024C7
:1004A00023F582E43401F58312079D0000000090DB
:1004B0000194E004F002041722BB010689828A83BA
:1004C000E0225002E722BBFE02E32289828A83E413
:1004D0009322BB010CE58229F582E5833AF583E09E
:1004E000225006E92582F8E622BBFE06E92582F8BD
:1004F000E222E58229F582E5833AF583E49322EF4F
:100500008DF0A4A8F0CF8CF0A428CE8DF0A42EFE00
:1005100022BC000BBE0029EF8DF084FFADF022E479
:10052000CCF875F008EF2FFFEE33FEEC33FCEE9DB8
:10053000EC984005FCEE9DFE0FD5F0E9E4CEFD22DF
:10054000EDF8F5F0EE8420D21CFEADF075F008EF6A
:100550002FFFED33FD4007985006D5F0F222C398E7
:10056000FD0FD5F0EA22C5F0F8A3E028F0C5F0F8B9
:10057000E582158270021583E038F022A3F8E0C509
:10058000F025F0F0E582158270021583E0C838F09E
:10059000E822E88FF0A4CC8BF0A42CFCE98EF0A428
:1005A0002CFC8AF0EDA42CFCEA8EF0A4CDA8F08BF4
:1005B000F0A42DCC3825F0FDE98FF0A42CCD35F03A
:1005C000FCEB8EF0A4FEA9F0EB8FF0A4CFC5F02ECB
:1005D000CD39FEE43CFCEAA42DCE35F0FDE43CFC34
:1005E0002275F008758200EF2FFFEE33FECD33CD7C
:1005F000CC33CCC58233C5829BED9AEC99E58298C9
:10060000400CF582EE9BFEED9AFDEC99FC0FD5F0C7
:10061000D6E4CEFBE4CDFAE4CCF9A88222B800C13E
:10062000B90059BA002DEC8BF084CFCECDFCE5F0AB
:10063000CBF97818EF2FFFEE33FEED33FDEC33FCF2
:10064000EB33FB10D703994004EB99FB0FD8E5E49B
:10065000F9FA227818EF2FFFEE33FEED33FDEC337D
:10066000FCC933C910D7059BE99A4007EC9BFCE90C
:100670009AF90FD8E0E4C9FAE4CCFB2275F010EF48
:100680002FFFEE33FEED33FDCC33CCC833C810D78B
:10069000079BEC9AE899400AED9BFDEC9AFCE899DF
:1006A000F80FD5F0DAE4CDFBE4CCFAE4C8F922EB9C
:1006B0009FF5F0EA9E42F0E99D42F0E89C45F02269
:1006C000E8600FECC313FCED13FDEE13FEEF13FF18
:1006D000D8F122BB010789828A830207FE5005E90F
:1006E000F80207F2BBFE05E9F802080A89828A834C
:1006F000020816BB010DE58229F582E5833AF583F0
:100700000207FE5007E92582F80207F2BBFE07E95F
:100710002582F802080AE58229F582E5833AF58305
:10072000020816BB010789828A830207915005E9F6
:10073000F802085CBBFE05E9F802086822BB010D5F
:10074000E58229F582E5833AF5830207915007E9AE
:100750002582F802085CBBFE07E92582F8020868DA
:1007600022BB010DE58229F582E5833AF583020873
:10077000335007E92582F8020826BBFE07E92582E7
:10078000F802083FE58229F582E5833AF5830208FD
:100790004CECF0A3EDF0A3EEF0A3EFF022A88285DD
:1007A00083F0D083D0821207B41207B41207B412B8
:1007B00007B4E473E493A3C583C5F0C583C8C582B9
:1007C000C8F0A3C583C5F0C583C8C582C822BB01D4
:1007D0000DE58229F582E5833AF58302079D5007EE
:1007E000E92582F8020874BBFE07E92582F80208B1
:1007F0008D22E6FC08E6FD08E6FE08E6FF22E0FCA6
:10080000A3E0FDA3E0FEA3E0FF22E2FC08E2FD0876
:10081000E2FE08E2FF22E493FC740193FD7402936C
:10082000FE740393FF22E6FB08E6F908E6FA08E601
:10083000CBF822E0F8A3E0F9A3E0FAA3E0FB22E280
:10084000FB08E2F908E2FA08E2CBF822E493F87434
:100850000193F9740293FA740393FB22ECF608ED0A
:10086000F608EEF608EFF622ECF208EDF208EEF2EA
:1008700008EFF222D083D082E493F608740193F655
:1008800008740293F608740393F6740473D083D04B
:1008900082E493F208740193F208740293F20874EC
:1008A0000393F2740473E4900194F0900010E0FF5D
:1008B000900194E0C39F505EE0FB25E025E02423F7
:1008C000F582E43401F58312079D00000000EB255A
:1008D000E02443F582E43401F583E4F0A3F09001D1
:1008E00094E0FF25E02453F582E43401F583E4F03D
:1008F000A3F0900120E0FBA3E0FAA3E0F975F00477
:10090000EFA4F58285F0831207CE0000000090016D
:1009100094E004F0809512160BE4900194F090009E
:1009200010E0FF900194E0FEC39F5069EE25E025A2
:10093000E02423F582E43401F583C083C082E0FC27
:10094000A3E0FDA3E0FEA3E0FF900120E0FBA3E015
:10095000FAA3E0F9900194E075F004A4F58285F023
:1009600083120761EF2BFFEE3AFEED39FDEC38FC08
:10097000D082D083120791900194E025E02453F5B2
:1009800082E43401F583E475F00112056690019468
:10099000E004F08089C3900154E09405900153E095
:1009A00094005003020916E4900194F0900010E0C6
:1009B000FF900194E0FEC39F4003020ABEEE25E0D3
:1009C0002453F582E43401F583E0FEA3E0FBAA069C
:1009D000E4F9F8900194E025E025E02423F582E491
:1009E0003401F583E0FCA3E0FDA3E0FEA3E0FF12E9
:1009F000061D900195120791E47F787E69FDFC90B9
:100A00000195E0F8A3E0F9A3E0FAA3E0FBD3120616
:100A1000AF403E900195E0FCA3E0FDA3E0FEA3E023
:100A20002458FFEE349EFEED34FFFDEC34FFFC90C5
:100A30000194E0FB25E025E02400F582E43401F593
:100A400083120791EB25E02455F876610876A8809B
:100A50002E900194E0FB25E025E02400F582E434AB
:100A600001F58312079D00000000900195A3A3E00B
:100A7000FEA3E0FFEB25E02455F8A60608A60790A4
:100A80000194E0FF25E02425F8E4F608F6EF25E0E0
:100A900025E02423F582E43401F58312079D00004C
:100AA0000000900194E025E02453F582E43401F540
:100AB00083E4F0A3F0900194E004F00209AC90000C
:100AC00097E004F022AB07E4900194F0A312079D95
:100AD00000000000900199E4F0A37464F0A3E4F036
:100AE000A37464F0E4A3F0900019E0F5C290FB0455
:100AF000EBF09001A07403F0A374BBF0E4F5C375B0
:100B0000BB2775B310F5AAF5BEF5BFF5BC75BD21C1
:100B100075E61890FB05743BF0E490FB09F090FB40
:100B20000A74F0F090FB0B743CF090FB0CF090FB1F
:100B30000D7401F0E490019EF0900010E0FF900130
:100B40009EE0C39F502E900120E0FBA3E0FAA3E0BB
:100B5000F990019EE0FF75F004A4F58285F0831200
:100B600007CE0000000074652FF8764690019EE0E5
:100B700004F080C5E4F5BC90019EF090FB0674FF84
:100B8000F090FB07F090FB08F0E490019FF09000DC
:100B900010E0FF90019FE0C39F503612188F90FB2A
:100BA00000E0FCA3E0FDA3E0FEA3E0FF900120E055
:100BB000FBA3E0FAA3E0F990019FE075F004A4F52F
:100BC0008285F08312073DD2D890019FE004F08027
:100BD000BDE490FB06F090FB07F090FB08F090015D
:100BE0009FF0900010E0FF90019FE0C39F505712CC
:100BF000188F900120E0FBA3E0FAA3E0F990019F99
:100C0000E075F004A4F582E92582F9EA35F0FAC02E
:100C100003C002C0011206D390FB00E0F8A3E0F984
:100C2000A3E0FAA3E0FBC3EF9BFFEE9AFEED99FD74
:100C3000EC98FCD001D002D003120723D2D8900147
:100C40009FE004F0809CE4900194F090019FF0906C
:100C50000010E0FF90019FE0C39F505A900120E0F8
:100C6000FBA3E0FAA3E0F990019FE075F004A4F57E
:100C70008285F0831206F390019FE0FD25E02415A4
:100C8000F8A60608A607ED25E02415F8E6FE08E616
:100C9000FFD39001A1E09F9001A0E09E400A900147
:100CA0009FE02465F8068006900194E004F090012E
:100CB0009FE004F08099900010E0FF900194E0C361
:100CC0009F500F90019EE004F0E0C3943250030265
:100CD0000B7B22C0E0C0F0C083C082C0D075D008BA
:100CE00030FD03020EBC20FC03020D7278AFE6F566
:100CF000FC53A1BFC2FF751001AB12AA13A9148542
:100D000010827583001204D2F511C2FF43F92078D6
:100D1000B2761308768820FF1220FA0F78B3E61611
:100D20001870011678B3E6184670EB30FA03020E1D
:100D3000BC8511FC0510AB12AA13A914851082758D
:100D400083001204D2F511C2FF43F92078B2761362
:100D500008768820FF1220FA0F78B3E61618700183
:100D60001678B3E6184670EB78B3E6184670BC0206
:100D70000EBC53A1BFC2FF751000C2FF43F920781B
:100D8000B2761308768820FF1220FA0F78B3E616A1
:100D90001870011678B3E6184670EB20FB4085FC0E
:100DA0001130FA03020EBC748E2510F8A61105103E
:100DB000C2FF43F92078B2761308768820FF12200C
:100DC000FA0F78B3E6161870011678B3E618467075
:100DD000EB85FC1178B3E6184670C6020EBC788D20
:100DE000A6FCAB12AA13A914AF1005108F8275834D
:100DF000001204D2F511C2FF43F92078B27613082D
:100E0000768820FF1220FA0F78B3E61618700116C4
:100E100078B3E6184670EB30FC75788DE6FF54F039
:100E200064806003020EBC74002FF582E43400F588
:100E300083E075F003A42446F582E4341EF583E4D0
:100E400093F9740193FA740293900181C9F0A3EAB3
:100E5000F0A3E9F020FA65900181E0FBA3E475F0CE
:100E60000112057CA9F0FA1204B9F5FCC2FF43F99E
:100E70002078B2761308768820FFD920FAD678B386
:100E8000E6161870011678B3E6184670EB80C57840
:100E90008DE606248EF8A6FCC2FF43F92078B276D0
:100EA0001308768820FF1220FA0F78B3E616187020
:100EB000011678B3E6184670EB30FAD3C2FF43F957
:100EC0002043A140789A7601D0D0D082D083D0F050
:100ED000D0E032E4900194F0900010E0FF90019493
:100EE000E0C39F4003021059900120E0FBA3E0FA09
:100EF000A3E0F9900194E075F004A4F58285F083F5
:100F00001206F3EC4D4E4F7003021040900194E036
:100F100025E025E02400F582E43401F583E0F8A320
:100F2000E0F9A3E0FAA3E0FBD31206AF40037F038E
:100F300022900120E0FBA3E0FAA3E0F9900194E005
:100F400075F004A4F58285F0831206F3900194E015
:100F500025E025E02400F582E43401F583E0F8A3E0
:100F6000E0F9A3E0FAA3E0FBC3EF9BFFEE9AFEEDEE
:100F700099FDEC98FC900195120791E47FFF7EFFAC
:100F8000FDFC900195E0F8A3E0F9A3E0FAA3E0FBF3
:100F9000C31206AF40037F0322E47F03FEFDFC90F3
:100FA0000195E0F8A3E0F9A3E0FAA3E0FB120592B3
:100FB000C004A905AA06AB07900194E025E0246DC2
:100FC000F8E6FE08E6FFE4FCFDD000EB2FFFEA3E6A
:100FD000FEED39FDEC38FC78021206C0E0FD25E09C
:100FE0002445F8A60608A607ED25E02445F8E6FE08
:100FF00008E6FFED25E0246DF8A60608A607ED2516
:10100000E02456F9ED25E02445F8E6FE08E6FFD396
:1010100097EE1997401BE025E02456F8C3EF96FFA2
:10102000EE1896FEE025E02425F8A60608A607801F
:101030001F900194E025E02425F8E4F608F68010DE
:10104000900194E025E02425F8E4F608F67F0322D9
:10105000900194E004F0020ED87F0722E4900198FA
:10106000F0A3F0A3F0A3F07815E6FE08E6FF9001E8
:1010700094EEF0A3EFF0A3EEF0A3EFF0E4FFF9FE9F
:10108000900010E0FDEEC39D5055EE25E02415F8CC
:10109000E6FC08E6FDC3900195E09D900194E09C7C
:1010A0005011AF06EE25E02415F8E6FD08E6CDF078
:1010B000A3EDF0EE25E02415F8E6FC08E6FDD3905C
:1010C0000197E09D900196E09C4011A906EE25E075
:1010D0002415F8E6FD08E6CDF0A3EDF00E80A19012
:1010E0000098EFF0A3E9F0E4900194F0A3F0FE90F3
:1010F0000010E0FDEEC39D507AEE25E02415F8E6E1
:10110000FC08E6FDD39423EC9400400690019BE09C
:1011100004F0D3ED942DEC94004006900198E00487
:10112000F0D3ED9437EC94004006900199E004F080
:10113000D3ED9441EC9400400690019AE004F090C5
:101140000098E06E6029EE25E02415F8E6FC08E63C
:10115000FDC3900195E09D900194E09C5011AF0675
:10116000EE25E02415F8E6FD08E6CDF0A3EDF00E3F
:101170000210EF90009DEFF090019BE090009FF037
:10118000900198E090009AF0900199E090009BF017
:1011900090019AE090009CF0224101B1FF4101B220
:1011A000084801A2000102040810204050018401F7
:1011B0002C00AA012C012C012C012C012C012C4803
:1011C0000177010204081020408041017F00610086
:1011D00000000D11FFFFFFFFFFFFFFFFFFFFFFFFFD
:1011E000FFFF0208388000000032180C06000028BB
:1011F0000A0202000000000000000805FFFF0000D6
:1012000000AA000000000000000000646464646440
:1012100064646400000000000000000000000000A2
:1012200000000000000000000000000000000000BE
:1012300000000000000000000000012C00AA012CAA
:10124000012C012C012C012C012C012C012C012C36
:10125000012C000102030405060708090A0B0C0D06
:101260000E0F01FFFF0000800000000000000000E2
:10127000000000000000000000000000000000006E
:10128000000000000000000000000000000000005E
:10129000000000000000000000000000000000004E
:1012A000000000000000000000000000000000003E
:1012B000000000000000000000000000000000002E
:1012C000000000000000000000000000000000001E
:1012D00000FF0075E61875CF1F75C30175BB387523
:1012E000B3809001947407F0900194E0FF702104A2
:1012F0007E00A807088005C333CE33CED8F9FF900F
:10130000FB0AE0FDEF5D7008900194E014F080D8D6
:10131000900194E0FF7401A807088002C333D8FC51
:1013200090FB0AF090FB0B7401F090FB0CF0900125
:101330009512079D00000000E4900194F0900010C9
:10134000E0FF900194E0FEC39F505274002EF5829E
:10135000E43400F583E0FFF4603B1218A390FB0037
:10136000E0FCA3E0FDA3E0FEA3E0FF900195E0F820
:10137000A3E0F9A3E0FAA3E0FBC31206AF50149078
:10138000FB00E0FCA3E0FDA3E0FEA3E0FF900195DD
:10139000120791D2D8900194E004F080A0900195BA
:1013A000E0FCA3E0FDA3E0FEA3E0FFE47B02FAF98A
:1013B000F8120592900195120791900195E0FCA317
:1013C000E0FDA3E0FEA3E0FF78101206C09000202D
:1013D000EFF0900195E0FCA3E0FDA3E0FEA3E0FFA9
:1013E00078081206C0900021EFF0900195A3A3A306
:1013F000E0900022F022E4FF12004EE4FCFDC00465
:10140000C005C006C0077825E6FE08E6FFE47B6459
:10141000FAF9F8120592D003D002D001D0001206DA
:101420001D900195EEF0A3EFF09001947401F090FF
:101430000010E0FF900194E0F9C39F505EAF0112ED
:10144000004EE4FCFDC004C005C006C00790019436
:10145000E025E02425F8E6FE08E6FFE47B64FAF9DF
:10146000F8120592D003D002D001D00012061D90D0
:101470000197EEF0A3EFF0D3900196E09F900195D5
:10148000E09E400F900197E0FFA3E0900195CFF020
:10149000A3EFF0900194E004F08094E4900194F0C4
:1014A000900010E0FF900194E0F9C39F5068AF01F5
:1014B00012004EE4FCFDC004C005C006C007900148
:1014C00094E025E02425F8E6FE08E6FFE47B64FAD4
:1014D000F9F8120592D003D002D001D00012061DF7
:1014E000900197EEF0A3EFF0900195E0FCA3E0FDF2
:1014F000C3EF9DFDEE9CFC900194E0FB25E02415DC
:10150000F8A60408A605EB25E02435F8A60608A6EB
:1015100007E004F0808A22121A151200039000904E
:101520007401F0121E1E121B8B121D0543D40843BA
:10153000DC0853E4F7D2B390009E74FFF0121D6DE7
:1015400043D40343E40343B003900090E024FD60E0
:101550003114603924FE604E146055146065240710
:101560007067121C1E121E1E121B3A121F6D121CD7
:10157000CE121D6D7F0A121DF6788BA60608A607EF
:101580008041121B3A121F6D121CCE80369001ACA6
:10159000E004F070069001ABE004F012160B90002E
:1015A000907406F08023120ED3900090EFF0801913
:1015B0001217CE900090EFF0789BE678AFF61219F4
:1015C000A380069000907404F09000FBE06029E492
:1015D000789AF6C2B3F0900175F0A3F0900176E02E
:1015E00004F07006900175E004F0900175E070045D
:1015F000A3E0645070E6D2B3789AE66006789BE682
:101600004408F6D2D8121C5C02154990001AE090EA
:10161000019BF0E4900199F0900010E0FF90019997
:10162000E0FEC39F5024900120E0FBA3E0FAA3E07A
:10163000F975F004EEA4F58285F0831207CE000060
:101640000000900199E004F080CE75E61875CF1F78
:1016500090FB0674FFF090FB07F090FB08F0900001
:1016600018E090FB04F0900020E0F5C3A3E0F5BB88
:10167000A3E0F5B3E4F5BC900199F090019BE0FF85
:10168000900199E0C39F5069E4A3F0900010E0FF3F
:1016900090019AE0C39F505012188F900120E0FBF8
:1016A000A3E0FAA3E0F990019AE075F004A4F582B2
:1016B000E92582F9EA35F0FAC002C0011206D3909A
:1016C000FB00E0F8A3E0F9A3E0FAA3E02FFFEA3E75
:1016D000FEE93DFDE83CFCD001D002120723D2D840
:1016E00090019AE004F080A3900199E004F00216C2
:1016F0007B75E61875CF1F2243F580C2DC0020DC25
:10170000F790FF03E493FFF4FE90FF02E493FDB52E
:1017100006048D9A8003759A4C90FF05E493FFF4BC
:10172000FE90FF04E493FDB506048D848003758468
:10173000049000007F007E04E4F0A3DFFCDEFA7872
:10174000FFE4F6D8FD7581B3021789020000021587
:1017500017E493A3F8E493A34003F68001F208DFB3
:10176000F48029E493A3F85407240CC8C333C45469
:101770000F4420C8834004F456800146F6DFE4801D
:101780000B0102040810204080901199E47E01931F
:1017900060BCA3FF543F30E509541FFEE493A360EF
:1017A000010ECF54C025E060A840B8E493A3FAE44A
:1017B00093A3F8E493A3C8C582C8CAC583CAF0A39B
:1017C000C8C582C8CAC583CADFE9DEE780BE121376
:1017D000F6121F5FBF010A900092E0FF12007680B0
:1017E000030218897F02121DF6D37886E69F18E659
:1017F0009E40028015787FE6FE08E6FFD39400EE57
:1018000094004013EF64014E7005121D9C807578A2
:1018100080E61618700116900092E09001B1F02455
:1018200010601614602124F27035121D9CE4787D3E
:10183000F608F608F608F68050121D9C7880E61827
:101840004670467F06800C121D9C7880E618467014
:10185000387F04121DF6787FA60608A607802AE4C2
:10186000787FF608F69001B1E0FF121AE7787E065D
:10187000E6187001067F05121DF6D3787EE69F18E4
:10188000E69E4005121CCE80009001B2E0FF22E0EF
:10189000FF2465F8E6F5BD74002FF582E43400F509
:1018A00083E0FFEF131313541FFEEF5407901EEB5A
:1018B00093FDEFD3941740037F0022EE14600F14C2
:1018C000601424027018ED42E1ED42D98013ED421C
:1018D000E2ED42DA800BED42E3ED42DB80037F0074
:1018E00022EF4420F5E675C70D000000000000431C
:1018F000C101E5C130E1FB53C1FD75E618EE14608E
:101900000F14601424027018EDF452E152D98013C0
:10191000EDF452E252DA800BEDF452E352DB800335
:101920007F0022E4F5C77F0122C0E0C0F0C083C081
:1019300082C0D075D000C000C004C005C006C0077A
:10194000C28D758CFD758A869001B4E004F0700636
:101950009001B3E004F09001B3E0FEA3E0FF7C0748
:101960007DD0120511ED4C70259001ABE0FEA3E097
:10197000FFD3940AEE940040089001ADEEF0A3EF7F
:10198000F09001ABE4F0A3F09001B3F0A3F0D00726
:10199000D006D005D004D000D0D0D082D083D0F0F3
:1019A000D0E032E4900194F0900194E0FF25E0242F
:1019B00035F8E6FC08E6FDEF75F008A424A1F8A6CA
:1019C0000408A605E0FF25E02425F8E6FC08E6FD6E
:1019D000EF75F008A424A3F8A60408A6059001203A
:1019E000E0FBA3E0FAA3E0F9900194E075F004A411
:1019F000F58285F0831206F378081206C0900194F0
:101A0000E075F008A424A5F8A60608A607E004F0EF
:101A1000E0B402942243850343910190FF05E493CF
:101A2000FFF4FE90FF04E493FDB506048D8480036B
:101A30007584045384F04384079000F2EDF0A3EF23
:101A4000F090FF03E493FFF4FE90FF02E493FDB5F2
:101A500006048D9A8003759A4C9000F0EDF0A3EF88
:101A6000F053E12053D52053802053E23C53DD3C1A
:101A700053903C53E30353E50353A00353E407534C
:101A8000B00722900019E0F5C2900018E090FB0426
:101A9000F0900020E0F5C3A3E0F5BBA3E0F5B3E4CC
:101AA000F5AA900014E0F5BEA3E0F5BFA3E0F5BCF5
:101AB000A3E0F5BD75E61890FB05743BF090FB06BE
:101AC00074FFF090FB07F090FB08F0E490FB09F046
:101AD00090FB0A74F0F090FB0B743CF090FB0CF060
:101AE00090FB0D7401F022E4FE900010E0FDEFC3C6
:101AF0009D501E900091E06F6017E4787DF608F627
:101B000074A22FF582E43401F583E0FE900091EF9A
:101B1000F0900091E0FF90009EE06F6014EF146081
:101B20000304700D9000FBE0700704F0EE04789B56
:101B3000F6900091E090009EF02290009174FFF0EA
:101B4000A3F0E4A3F0787DF608F67881F608F608AD
:101B5000F608F608F608F608F608F6787FF608F6AE
:101B6000FF900010E0FEEFC39E501F900120E0FBAD
:101B7000A3E0FAA3E0F975F004EFA4F58285F08301
:101B80001207CE000000000F80D722E4789BF608F1
:101B9000760808F608F6FFEF75F008A4249FF8769B
:101BA00000087632EF75F008A424A1F8E4F608F6F0
:101BB000EF75F008A424A3F8E4F608F6EF75F00832
:101BC000A424A5F8E4F608F60FEFB402CA751200D3
:101BD00075130075149B22EF131313541FFEEF545B
:101BE000072477F582E43401F583E0FFEE146012F8
:101BF00014601A24027021EF42E1EF42D9EF42D182
:101C00008019EF42E2EF42DAEF42D2800EEF42E378
:101C1000EF42DBEF42D380037F00227F012290FF5F
:101C2000FEE493FFF4FEA3E493FDB5060A8D8F90C6
:101C3000002F74AAF08009758F2590002F74FFF093
:101C400075C60C9000F4EDF0A3EFF0E4F5C7F5C114
:101C500075CE4275D606121ECCD2AF22788EE6FF24
:101C60006032E4F6EF24FE600C2482600D247F7065
:101C7000237F018002E4FF021F08121DCA121F22E7
:101C8000121E6A53DCF753E4F753D4F7D2B3900033
:101C9000907401F022E4FEEE75F003A424F3F582C3
:101CA000E4341EF583E493FDF4601FEFB50516EEF2
:101CB00075F003A424F4F582E4341EF583E493FE66
:101CC000740193FF220EEEB407CDE4FEFF22E47808
:101CD00081F608F67885F608F608F608F6787FF6B5
:101CE00008F6787DF608F6900018E0FF120AC51293
:101CF00012D3121A831208A67F0A121DF6788BA639
:101D00000608A607227E007FE0E4FDED25E0248D95
:101D1000F582E4341EF583E493F4601EED25E0249F
:101D20008EF582E4341EF583E493FCEF2DF582E416
:101D30003EF583ECF00DEDB410D12290001FE0FED3
:101D4000900092E06F6005EFF0E4A3F0900092E065
:101D5000B4FF02E4FEAF06900093E004F0C39F508E
:101D6000037F00229000937402F07F012243B14070
:101D700053FAF790FFF8E493B4F80B43FA0443F9ED
:101D80000243F901800353FAFB43F90243F901537B
:101D9000F9BF75FB4053FAFD43A14022E4787DF67C
:101DA00008F690009174FFF090009EE0FFF460133D
:101DB000EF14600304700C9000FB7401F0789BE654
:101DC0004408F690009E74FFF022E4F5D9F5D1F5B1
:101DD000E1F5D57580FFF5DAF5D2F5E2F5DD759020
:101DE000FFF5DBF5D3F5E3F5E575A0FF43DC08432C
:101DF000E40853D4F7229000E0EFB4FF057F017EA2
:101E00000022E5822FF582E43583F583E0FB900123
:101E1000ADE0FCA3E0FDAF037E001204FF22E490DE
:101E20000097F09001ABF0A3F09001ADF0A3742007
:101E3000F090002A74FFF09001207401F0A3740068
:101E4000F0A374A0F02200004500004D00005500F2
:101E5000005D00001500001D00002500002D0000A1
:101E60008E000065000035000067AFD653C7FBE465
:101E7000F5D6C2D953A1EF539AF05391FE5387FC84
:101E800043870200004391018FD6021F50000201D8
:101E900001020103010401053C06050702080A09C5
:101EA000020A020B280C3C0D1E0E01FF01E4FD90FE
:101EB0000010E0FFEDC39F501274002DF582E43452
:101EC00000F583E0FF121BD70D80E422438901C295
:101ED0008DD2A953B7FD53B8FDE49001B3F0A3F040
:101EE000758CFD758A86D28CD2AF2201020408104F
:101EF000204080010521060995020CF10C0F4114C8
:101F000011A8041662FF00FFEFB40111C293C29240
:101F10007F0A121DF6788BA60608A60722D293D256
:101F2000922243DC0843E40853D4F7D2B353B2FD02
:101F3000E4F5BA5391DF43A10222D3EF9DEE9C401A
:101F400007EF9DFFEE9CFE22C3ED9FFFEC9EFE225D
:101F5000D2DFC2DA538E1F438EE0D2D8D2D92212FA
:101F6000000E121D3BEF7002FF227F0122121EADF8
:101F7000021A8353B2DF32FFFFFFFFFFFFFFFFFFB5
:101F8000FFFFFFFFFFFFFFFFFFFFFFFFFFFFFFFF61
:101F9000FFFFFFFFFFFFFFFFFFFFFFFFFFFFFFFF51
:00000001FF
