:100000000216F1C293C29275AD0C22021922120F90
:100010001B900010E0FF900091E0FEC39F5013EE94
:1000200025E02436F9C3E7943219E794004003E051
:10003000FF22900098E0FF25E02416F9D3E79432E0
:1000400019E794004001227FFF22FF021F96AD07AF
:10005000ED25E02468F582E43400F583E07F00FEBE
:10006000ED25E02469F582E43400F583E02FFFE418
:100070003EFE220208A6900194EFF0E4900197F072
:10008000A3F07F01121E3C900199EEF0A3EFF0E483
:10009000900194F0900010E0FF900194E0FEC39F67
:1000A00040030203E2900091E0C394F05013EE2568
:1000B000E02436F9D3E7941419E7940040030201D1
:1000C00060900194E0FF12004E900197EEF0A3EFD4
:1000D000F0900194E0FF25E02453F582E43401F52B
:1000E00083E0FCA3E04C701FEF25E02445F8E6FC1C
:1000F00008E6FDEF25E02443F582E43401F583ECC6
:10010000F0A3EDF002018C900194E0FD25E0244382
:10011000F582E43401F583E0FEA3E0FFED25E02461
:1001200045F8E6FC08E6FD121F5DAC06AD07900140
:1001300097E0C313FEA3E013FFD3ED9FEC9E404C6A
:10014000900194E0FF25E02445F8E6FC08E6FDEF89
:1001500025E02443F582E43401F583ECF0A3EDF0CF
:10016000900194E0FF25E02453F582E43401F58307
:10017000E4F0A3F0EF25E025E02423F582E4340148
:10018000F58312079D000000000203D9900194E05E
:10019000FF25E02445F8E6FC08E6FDA3ECF0A3ED1E
:1001A000F0787CE61846705DEF25E02455F8E6FE11
:1001B00008E6FF121F5D900197E0FCA3E0FDC39FDE
:1001C000EC9E5041900194E0FF25E02446F9EF2594
:1001D000E02455F8E6FA08E6FBC397EA1997500DB4
:1001E000ECC313FEED132BFFEE3AA380149001979E
:1001F000E0C313FEA3E013FFC3EB9FFFEA9E900151
:1002000095F0A3EFF0900194E0FF25E02446F9EF8C
:1002100025E02455F8E6FE08E6FFD397EE1997503F
:1002200003020377E025E02446F8C3EF96FDEE18BD
:1002300096FC900197E0FEA3E07802CEC313CE13A4
:10024000D8F9FFD3ED9FEC9E500302036890019410
:10025000E0FB24AFF582E43401F583E070369001D1
:1002600094E0FF25E02453F582E43401F583E4F0C3
:10027000A3F0EF25E025E02423F582E43401F583A3
:1002800012079D0000000074AF2BF582E43401F5E5
:10029000837401F0900194E0FF25E02453F582E49B
:1002A0003401F583E475F001120566EF25E025E0E1
:1002B0002423F582E43401F583C083C082E0F8A3EF
:1002C000E0F9A3E0FAA3E0FBC000900194E025E090
:1002D0002445F8E6FE08E6FFE4FCFDD000EB2FFF26
:1002E000EA3EFEED39FDEC38FCD082D08312079156
:1002F000900194E025E02453F582E43401F583E095
:10030000FEA3E0FFD39407EE9400406BAB07AA0670
:10031000E4F9F8900194E025E025E02423F582E457
:100320003401F583E0FCA3E0FDA3E0FEA3E0FF12AF
:10033000061D900194E0FD25E02455F8A60608A6C8
:1003400007ED25E02453F582E43401F583E4F0A3BE
:10035000F0ED25E025E02423F582E43401F5831255
:10036000079D00000000800F900194E024AFF5820B
:10037000E43401F583E4F0900194E0FF24AFF582CA
:10038000E43401F583E07051EF25E025E02423F506
:1003900082E43401F583C083C082E0F8A3E0F9A3CE
:1003A000E0FAA3E0FB900195E0FEA3E0FFE4FCFD92
:1003B000EB2FFFEA3EFEED39FDEC38FCD082D08316
:1003C000120791900194E025E02453F582E4340172
:1003D000F583E475F001120566900194E004F002E3
:1003E0000094D3787CE6940018E69400400708E671
:1003F0001618700116787CE618466016900199E090
:10040000FEA3E07802CEC313CE13D8F9F0EE90012C
:1004100099F0E4900194F0900010E0FF900194E0D6
:10042000FEC39F40030204B874AF2EF582E434018A
:10043000F583E0707AEE25E02453F582E43401F58B
:1004400083E0FEA3E0FF900199E0FCA3E0FDC3EF91
:100450009DEE9C405AAB07AA06E4F9F8900194E09F
:1004600025E025E02423F582E43401F583E0FCA3B4
:10047000E0FDA3E0FEA3E0FF12061D900194E0FD65
:1004800025E02455F8A60608A607ED25E02453F537
:1004900082E43401F583E4F0A3F0ED25E025E024C7
:1004A00023F582E43401F58312079D0000000090DB
:1004B0000194E004F002041722BB010689828A83BA
:1004C000E0225002E722BBFE02E32289828A83E413
:1004D0009322BB010CE58229F582E5833AF583E09E
:1004E000225006E92582F8E622BBFE06E92582F8BD
:1004F000E222E58229F582E5833AF583E49322EF4F
:100500008DF0A4A8F0CF8CF0A428CE8DF0A42EFE00
:1005100022BC000BBE0029EF8DF084FFADF022E479
:10052000CCF875F008EF2FFFEE33FEEC33FCEE9DB8
:10053000EC984005FCEE9DFE0FD5F0E9E4CEFD22DF
:10054000EDF8F5F0EE8420D21CFEADF075F008EF6A
:100550002FFFED33FD4007985006D5F0F222C398E7
:10056000FD0FD5F0EA22C5F0F8A3E028F0C5F0F8B9
:10057000E582158270021583E038F022A3F8E0C509
:10058000F025F0F0E582158270021583E0C838F09E
:10059000E822E88FF0A4CC8BF0A42CFCE98EF0A428
:1005A0002CFC8AF0EDA42CFCEA8EF0A4CDA8F08BF4
:1005B000F0A42DCC3825F0FDE98FF0A42CCD35F03A
:1005C000FCEB8EF0A4FEA9F0EB8FF0A4CFC5F02ECB
:1005D000CD39FEE43CFCEAA42DCE35F0FDE43CFC34
:1005E0002275F008758200EF2FFFEE33FECD33CD7C
:1005F000CC33CCC58233C5829BED9AEC99E58298C9
:10060000400CF582EE9BFEED9AFDEC99FC0FD5F0C7
:10061000D6E4CEFBE4CDFAE4CCF9A88222B800C13E
:10062000B90059BA002DEC8BF084CFCECDFCE5F0AB
:10063000CBF97818EF2FFFEE33FEED33FDEC33FCF2
:10064000EB33FB10D703994004EB99FB0FD8E5E49B
:10065000F9FA227818EF2FFFEE33FEED33FDEC337D
:10066000FCC933C910D7059BE99A4007EC9BFCE90C
:100670009AF90FD8E0E4C9FAE4CCFB2275F010EF48
:100680002FFFEE33FEED33FDCC33CCC833C810D78B
:10069000079BEC9AE899400AED9BFDEC9AFCE899DF
:1006A000F80FD5F0DAE4CDFBE4CCFAE4C8F922EB9C
:1006B0009FF5F0EA9E42F0E99D42F0E89C45F02269
:1006C000E8600FECC313FCED13FDEE13FEEF13FF18
:1006D000D8F122BB010789828A830207FE5005E90F
:1006E000F80207F2BBFE05E9F802080A89828A834C
:1006F000020816BB010DE58229F582E5833AF583F0
:100700000207FE5007E92582F80207F2BBFE07E95F
:100710002582F802080AE58229F582E5833AF58305
:10072000020816BB010789828A830207915005E9F6
:10073000F802085CBBFE05E9F802086822BB010D5F
:10074000E58229F582E5833AF5830207915007E9AE
:100750002582F802085CBBFE07E92582F8020868DA
:1007600022BB010DE58229F582E5833AF583020873
:10077000335007E92582F8020826BBFE07E92582E7
:10078000F802083FE58229F582E5833AF5830208FD
:100790004CECF0A3EDF0A3EEF0A3EFF022A88285DD
:1007A00083F0D083D0821207B41207B41207B412B8
:1007B00007B4E473E493A3C583C5F0C583C8C582B9
:1007C000C8F0A3C583C5F0C583C8C582C822BB01D4
:1007D0000DE58229F582E5833AF58302079D5007EE
:1007E000E92582F8020874BBFE07E92582F80208B1
:1007F0008D22E6FC08E6FD08E6FE08E6FF22E0FCA6
:10080000A3E0FDA3E0FEA3E0FF22E2FC08E2FD0876
:10081000E2FE08E2FF22E493FC740193FD7402936C
:10082000FE740393FF22E6FB08E6F908E6FA08E601
:10083000CBF822E0F8A3E0F9A3E0FAA3E0FB22E280
:10084000FB08E2F908E2FA08E2CBF822E493F87434
:100850000193F9740293FA740393FB22ECF608ED0A
:10086000F608EEF608EFF622ECF208EDF208EEF2EA
:1008700008EFF222D083D082E493F608740193F655
:1008800008740293F608740393F6740473D083D04B
:1008900082E493F208740193F208740293F20874EC
:1008A0000393F2740473C0E0C0F0C083C082C0D070
:1008B00075D00820F903020AD153A1BFC2FF53FA31
:1008C000FD75C60CC2FF43F92078A276130876881E
:1008D00020FF1220FA0F78A3E6161870011678A3ED
:1008E000E6184670EB20FC0302096C789FE6F5FCE5
:1008F000751001AB12AA13A914851082758300121A
:1009000004D2F511C2FF43F92078A2761308768845
:1009100020FF1220FA0F78A3E6161870011678A3AC
:10092000E6184670EB30FA03020AD18511FC051077
:10093000AB12AA13A9148510827583001204D2F594
:1009400011C2FF43F92078A2761308768820FF129F
:1009500020FA0F78A3E6161870011678A3E6184659
:1009600070EB78A3E6184670BC020AD153A1BFC24F
:10097000FF751000C2FF43F92078A276130876882D
:1009800020FF1220FA0F78A3E6161870011678A33C
:10099000E6184670EB20FB4085FC1130FA03020A92
:1009A000D1747E2510F8A6110510C2FF43F92078F6
:1009B000A2761308768820FF1220FA0F78A3E61695
:1009C0001870011678A3E6184670EB85FC1178A321
:1009D000E6184670C6020AD1787DA6FCAB12AA13AF
:1009E000A914AF1005108F827583001204D2F5117F
:1009F000C2FF43F92078A2761308768820FF1220E0
:100A0000FA0F78A3E6161870011678A3E618467058
:100A1000EB30FC78787DE6FF54F064806003020AD6
:100A2000D174002FF582E43400F583E075F003A45F
:100A3000248CF582E4341EF583E493F9740193FA6F
:100A4000740293900181C9F0A3EAF0A3E9F030FAAF
:100A500003020AD1900181E0FBA3E475F0011205C5
:100A60007CA9F0FA1204B9F5FCC2FF43F92078A280
:100A7000761308768820FFD620FAD378A3E61618D6
:100A800070011678A3E6184670EB80C2787DE624E4
:100A900000F9E43400FA9001817401F0A3EAF0A3B4
:100AA000E9F020FA2C787DE606247EF8A6FCC2FF49
:100AB00043F92078A2761308768820FFE520FAE231
:100AC00078A3E6161870011678A3E6184670EB8036
:100AD000D1C2FF43F92043A14043FA0275C606780C
:100AE0008A7601D0D0D082D083D0F0D0E032E490AA
:100AF0000194F0900010E0FF900194E0C39F505EDD
:100B0000E0FB25E025E02423F582E43401F583129F
:100B1000079D00000000EB25E02443F582E434014A
:100B2000F583E4F0A3F0900194E0FF25E02453F571
:100B300082E43401F583E4F0A3F0900120E0FBA30C
:100B4000E0FAA3E0F975F004EFA4F58285F08312D2
:100B500007CE00000000900194E004F0809512168A
:100B600004E4900194F0900010E0FF900194E0FE06
:100B7000C39F5069EE25E025E02423F582E434018B
:100B8000F583C083C082E0FCA3E0FDA3E0FEA3E008
:100B9000FF900120E0FBA3E0FAA3E0F9900194E0CC
:100BA00075F004A4F58285F083120761EF2BFFEE48
:100BB0003AFEED39FDEC38FCD082D08312079190DB
:100BC0000194E025E02453F582E43401F583E475D3
:100BD000F001120566900194E004F08089C3900151
:100BE00054E09405900153E094005003020B5EE43E
:100BF000900194F0900010E0FF900194E0FEC39FFC
:100C00004003020D06EE25E02453F582E43401F59D
:100C100083E0FEA3E0FBAA06E4F9F8900194E02546
:100C2000E025E02423F582E43401F583E0FCA3E031
:100C3000FDA3E0FEA3E0FF12061D900195120791AF
:100C4000E47F787E69FDFC900195E0F8A3E0F9A3CC
:100C5000E0FAA3E0FBD31206AF403E900195E0FC22
:100C6000A3E0FDA3E0FEA3E02458FFEE349EFEEDDA
:100C700034FFFDEC34FFFC900194E0FB25E025E01F
:100C80002400F582E43401F583120791EB25E0247A
:100C900055F876610876A8802E900194E0FB25E057
:100CA00025E02400F582E43401F58312079D00005D
:100CB0000000900195A3A3E0FEA3E0FFEB25E02454
:100CC00055F8A60608A607900194E0FF25E0242524
:100CD000F8E4F608F6EF25E025E02423F582E43475
:100CE00001F58312079D00000000900194E025E0CB
:100CF0002453F582E43401F583E4F0A3F0900194E9
:100D0000E004F0020BF4900097E004F022AB07E45B
:100D1000900194F0A312079D00000000900199E457
:100D2000F0A37464F0A3E4F0A37464F0E4A3F0907F
:100D30000019E0F5C290FB04EBF09001A07407F0FD
:100D4000A37476F0E4F5C375BB2775B310F5AAF567
:100D5000BEF5BFF5BC75BD2175E61890FB05743B6B
:100D6000F0E490FB09F090FB0A74F0F090FB0B7438
:100D70003CF090FB0CF090FB0D7401F0E490019EB0
:100D8000F0900010E0FF90019EE0C39F502E900174
:100D900020E0FBA3E0FAA3E0F990019EE0FF75F0EC
:100DA00004A4F58285F0831207CE0000000074656C
:100DB0002FF8767890019EE004F080C5E4F5BC90B1
:100DC000019EF090FB0674FFF090FB07F090FB088B
:100DD000F0E490019FF0900010E0FF90019FE0C3CD
:100DE0009F503612188890FB00E0FCA3E0FDA3E0C2
:100DF000FEA3E0FF900120E0FBA3E0FAA3E0F9905E
:100E0000019FE075F004A4F58285F08312073DD2BE
:100E1000D890019FE004F080BDE490FB06F090FBC9
:100E200007F090FB08F090019FF0900010E0FF9019
:100E3000019FE0C39F5057121888900120E0FBA348
:100E4000E0FAA3E0F990019FE075F004A4F582E9CF
:100E50002582F9EA35F0FAC003C002C0011206D3B8
:100E600090FB00E0F8A3E0F9A3E0FAA3E0FBC3EFF6
:100E70009BFFEE9AFEED99FDEC98FCD001D002D0DC
:100E800003120723D2D890019FE004F0809CE490E5
:100E90000194F090019FF0900010E0FF90019FE01E
:100EA000C39F505A900120E0FBA3E0FAA3E0F99021
:100EB000019FE075F004A4F58285F0831206F3909B
:100EC000019FE0FD25E02415F8A60608A607ED25FC
:100ED000E02415F8E6FE08E6FFD39001A1E09F901C
:100EE00001A0E09E400A90019FE02465F80680067C
:100EF000900194E004F090019FE004F0809990004C
:100F000010E0FF900194E0C39F500F90019EE00419
:100F1000F0E0C394325003020DC322E4900198F034
:100F2000A3F0A3F0A3F07815E6FE08E6FF90019485
:100F3000EEF0A3EFF0A3EEF0A3EFF0E4FFF9FE90E4
:100F40000010E0FDEEC39D5055EE25E02415F8E6B7
:100F5000FC08E6FDC3900195E09D900194E09C5053
:100F600011AF06EE25E02415F8E6FD08E6CDF0A366
:100F7000EDF0EE25E02415F8E6FC08E6FDD390013F
:100F800097E09D900196E09C4011A906EE25E02493
:100F900015F8E6FD08E6CDF0A3EDF00E80A1900077
:100FA00098EFF0A3E9F0E4900194F0A3F0FE900034
:100FB00010E0FDEEC39D507AEE25E02415F8E6FC26
:100FC00008E6FDD39423EC9400400690019BE004D6
:100FD000F0D3ED942DEC94004006900198E004F0DD
:100FE000D3ED9437EC94004006900199E004F0D3DF
:100FF000ED9441EC9400400690019AE004F09000DA
:1010000098E06E6029EE25E02415F8E6FC08E6FD80
:10101000C3900195E09D900194E09C5011AF06EEC5
:1010200025E02415F8E6FD08E6CDF0A3EDF00E026C
:101030000FAE90009DEFF090019BE090009FF0902C
:101040000198E090009AF0900199E090009BF09058
:10105000019AE090009CF022E4900194F09000103E
:10106000E0FF900194E0C39F4003021192900120A1
:10107000E0FBA3E0FAA3E0F9900194E075F004A48A
:10108000F58285F0831206F3EC4D4E4F700302118A
:1010900079900194E025E025E02400F582E4340114
:1010A000F583E0F8A3E0F9A3E0FAA3E0FBD312068E
:1010B000AF40037F0322900120E0FBA3E0FAA3E00E
:1010C000F9900194E075F004A4F58285F08312068E
:1010D000F3900194E025E025E02400F582E434015A
:1010E000F583E0F8A3E0F9A3E0FAA3E0FBC3EF9BEC
:1010F000FFEE9AFEED99FDEC98FC90019512079198
:10110000E47FFF7EFFFDFC900195E0F8A3E0F9A3EA
:10111000E0FAA3E0FBC31206AF40037F0322900175
:1011200095A3A3E0FEA3E0FF900194E0FD25E02459
:1011300045F8A60608A607ED25E02456F9ED25E0BA
:101140002445F8E6FE08E6FFD397EE1997401BE02A
:1011500025E02456F8C3EF96FFEE1896FEE025E052
:101160002425F8A60608A607801F900194E025E034
:101170002425F8E4F608F68010900194E025E02498
:1011800025F8E4F608F67F0322900194E004F002CB
:10119000105D7F07224101B1FF4101B2084801A261
:1011A000000102040810204050018400F000B0014A
:1011B000E001E001E001E001E001E0480177010227
:1011C00004081020408041017F00610000000D11E3
:1011D000FFFFFFFFFFFFFFFFFFFFFFFFFFFF020813
:1011E000388000000032180C030000280A040200B6
:1011F0000000000000001205FFFF000000AA000030
:1012000000000000000000646464646464646400BE
:1012100000000000000000000000000000000000CE
:1012200000000000000000000000000000000000BE
:1012300000000000000000F000B001E001E001E06B
:1012400001E001E001E001E001E001E001E0000176
:1012500002030405060708090A0B0C0D0E0F01FF17
:10126000FF000080000000000000000000000000FF
:10127000000000000000000000000000000000006E
:10128000000000000000000000000000000000005E
:10129000000000000000000000000000000000004E
:1012A000000000000000000000000000000000003E
:1012B000000000000000000000000000000000002E
:1012C00000000000000000000000000000FF0075AA
:1012D000E61875CF1F75C30175BB3875B3809001D3
:1012E000947407F0900194E0FF7021047E00A80739
:1012F000088005C333CE33CED8F9FF90FB0AE0FD5A
:10130000EF5D7008900194E014F080D8900194E0B3
:10131000FF7401A807088002C333D8FC90FB0AF0D1
:1013200090FB0B7401F090FB0CF090019512079D5F
:1013300000000000E4900194F0900010E0FF9001A4
:1013400094E0FEC39F505274002EF582E43400F501
:1013500083E0FFF4603B12189C90FB00E0FCA3E0EC
:10136000FDA3E0FEA3E0FF900195E0F8A3E0F9A360
:10137000E0FAA3E0FBC31206AF501490FB00E0FCC0
:10138000A3E0FDA3E0FEA3E0FF900195120791D238
:10139000D8900194E004F080A0900195E0FCA3E0D7
:1013A000FDA3E0FEA3E0FFE47B02FAF9F812059248
:1013B000900195120791900195E0FCA3E0FDA3E058
:1013C000FEA3E0FF78101206C0900020EFF090011D
:1013D00095E0FCA3E0FDA3E0FEA3E0FF7808120681
:1013E000C0900021EFF0900195A3A3A3E09000220C
:1013F000F022E4FF12004EE4FCFDC004C005C0066C
:10140000C0077825E6FE08E6FFE47B64FAF9F812E7
:101410000592D003D002D001D00012061D90019594
:10142000EEF0A3EFF09001947401F0900010E0FF53
:10143000900194E0F9C39F505EAF0112004EE4FCAE
:10144000FDC004C005C006C007900194E025E0245B
:1014500025F8E6FE08E6FFE47B64FAF9F812059247
:10146000D003D002D001D00012061D900197EEF0FB
:10147000A3EFF0D3900196E09F900195E09E400F7E
:10148000900197E0FFA3E0900195CFF0A3EFF090DB
:101490000194E004F08094E4900194F0900010E056
:1014A000FF900194E0F9C39F5068AF0112004EE431
:1014B000FCFDC004C005C006C007900194E025E013
:1014C0002425F8E6FE08E6FFE47B64FAF9F8120545
:1014D00092D003D002D001D00012061D900197EEE9
:1014E000F0A3EFF0900195E0FCA3E0FDC3EF9DFDBC
:1014F000EE9CFC900194E0FB25E02415F8A604087E
:10150000A605EB25E02435F8A60608A607E004F0BA
:10151000808A22121A0E1200039000907401F012B9
:101520001E64121AE0121D4B53D4F743DC0853E437
:10153000F7D2B390009E74FFF0121DB343D403435F
:10154000E403900090E024FD603114603924FE60D3
:101550004E14605514606524077067121C2B121E10
:1015600064121B93121F90121D14121DB37F0A12D6
:101570001E3C787BA60608A6078041121B93121F0B
:1015800090121D1480369001ACE004F070069001BA
:10159000ABE004F01216049000907406F080231261
:1015A0001058900090EFF080191217C7900090EF3C
:1015B000F0788BE6789FF612199C80069000907464
:1015C00004F09000FBE06029E4788AF6C2B3F09062
:1015D0000175F0A3F0900176E004F07006900175BB
:1015E000E004F0900175E07004A3E0645070E6D26E
:1015F000B3788AE66006788BE64408F6D2D8121CE7
:10160000A202154290001AE090019BF0E49001992B
:10161000F0900010E0FF900199E0FEC39F502490ED
:101620000120E0FBA3E0FAA3E0F975F004EEA4F5D5
:101630008285F0831207CE00000000900199E0043B
:10164000F080CE75E61875CF1F90FB0674FFF09002
:10165000FB07F090FB08F0900018E090FB04F0907E
:101660000020E0F5C3A3E0F5BBA3E0F5B3E4F5BCCF
:10167000900199F090019BE0FF900199E0C39F5089
:1016800069E4A3F0900010E0FF90019AE0C39F503E
:1016900050121888900120E0FBA3E0FAA3E0F99033
:1016A000019AE075F004A4F582E92582F9EA35F0A3
:1016B000FAC002C0011206D390FB00E0F8A3E0F9E3
:1016C000A3E0FAA3E02FFFEA3EFEE93DFDE83CFC83
:1016D000D001D002120723D2D890019AE004F08002
:1016E000A3900199E004F002167475E61875CF1FF7
:1016F0002243F580C2DC0020DCF790FF03E493FF77
:10170000F4FE90FF02E493FDB506048D9A80037504
:101710009A4C90FF05E493FFF4FE90FF04E493FDE0
:10172000B506048D8480037584049000007F007EDC
:1017300004E4F0A3DFFCDEFA78FFE4F6D8FD75815F
:10174000A3021782020000021513E493A3F8E493A6
:10175000A34003F68001F208DFF48029E493A3F8A4
:101760005407240CC8C333C4540F4420C883400416
:10177000F456800146F6DFE4800B010204081020D5
:101780004080901195E47E019360BCA3FF543F30EC
:10179000E509541FFEE493A360010ECF54C025E079
:1017A00060A840B8E493A3FAE493A3F8E493A3C831
:1017B000C582C8CAC583CAF0A3C8C582C8CAC583C2
:1017C000CADFE9DEE780BE1213F2121F82BF010AF0
:1017D000900092E0FF12007680030218827F0212CE
:1017E0001E3CD37876E69F18E69E40028015786FFF
:1017F000E6FE08E6FFD39400EE94004013EF640188
:101800004E7005121DE280757870E616187001168C
:10181000900092E09001B1F0241060161460212431
:10182000F27035121DE2E4786DF608F608F608F657
:101830008050121DE27870E6184670467F06800CD4
:10184000121DE27870E6184670387F04121E3C784C
:101850006FA60608A607802AE4786FF608F69001BE
:10186000B1E0FF121B40786E06E6187001067F0596
:10187000121E3CD3786EE69F18E69E4005121D149A
:1018800080009001B2E0FF22E0FF2465F8E6F5BD9C
:1018900074002FF582E43400F583E0FFEF13131397
:1018A000541FFEEF5407901F0E93FDEFD394174083
:1018B000037F0022EE14600F14601424027018EDF0
:1018C00042E1ED42D98013ED42E2ED42DA800BEDC8
:1018D00042E3ED42DB80037F0022EF4420F5E67512
:1018E000C70D00000000000043C101E5C130E1FB6D
:1018F00053C1FD75E618EE14600F146014240270D5
:1019000018EDF452E152D98013EDF452E252DA802C
:101910000BEDF452E352DB80037F0022E4F5C77F36
:101920000122C0E0C0F0C083C082C0D075D000C02A
:1019300000C004C005C006C007C28D758CFE758A44
:10194000C39001B4E004F070069001B3E004F0909D
:1019500001B3E0FEA3E0FF7C077DD0120511ED4C42
:1019600070259001ABE0FEA3E0FFD3940AEE940053
:1019700040089001ADEEF0A3EFF09001ABE4F0A3CE
:10198000F09001B3F0A3F0D007D006D005D004D07A
:1019900000D0D0D082D083D0F0D0E032E490019457
:1019A000F0900194E0FF25E02435F8E6FC08E6FD20
:1019B000EF75F008A42491F8A60408A605E0FF2519
:1019C000E02425F8E6FC08E6FDEF75F008A4249372
:1019D000F8A60408A605900120E0FBA3E0FAA3E026
:1019E000F9900194E075F004A4F58285F083120665
:1019F000F378081206C0900194E075F008A42495CD
:101A0000F8A60608A607E004F0E0B4029422438595
:101A10000343910190FF05E493FFF4FE90FF04E47B
:101A200093FDB506048D8480037584045384F043CC
:101A300084079000F2EDF0A3EFF090FF03E493FF32
:101A4000F4FE90FF02E493FDB506048D9A800375C1
:101A50009A4C9000F0EDF0A3EFF053E12053D52025
:101A600053802053E23C53DD3C53903C53E30353FB
:101A7000E50353A00353E40753B00722900019E095
:101A8000F5C2900018E090FB04F0900020E0F5C350
:101A9000A3E0F5BBA3E0F5B3E4F5AA900014E0F5EC
:101AA000BEA3E0F5BFA3E0F5BCA3E0F5BD75E61865
:101AB00090FB05743BF090FB0674FFF090FB07F081
:101AC00090FB08F0E490FB09F090FB0A74F0F090B2
:101AD000FB0B743CF090FB0CF090FB0D7401F022BA
:101AE000E4788BF608760508F608F6900194F090F5
:101AF0000194E0FFC39402503D12004E900194E027
:101B0000FD75F008A4248FF8A60608A607ED75F069
:101B100008A42491F8E4F608F6ED75F008A42493DF
:101B2000F8E4F608F6ED75F008A42495F8E4F60854
:101B3000F6E004F080B975120075130075148B225D
:101B4000E4FE900010E0FDEFC39D501E900091E078
:101B50006F6017E4786DF608F674A22FF582E4340E
:101B600001F583E0FE900091EFF0900091E0FF908E
:101B7000009EE06F6014EF14600304700D9000FB92
:101B8000E0700704F0EE04788BF6900091E090008E
:101B90009EF02290009174FFF0A3F0E4A3F0786D22
:101BA000F608F67871F608F608F608F608F608F66C
:101BB00008F608F6786FF608F6FF900010E0FEEFE2
:101BC000C39E501F900120E0FBA3E0FAA3E0F9754B
:101BD000F004EFA4F58285F0831207CE0000000028
:101BE0000F80D722EF131313541FFEEF54072477EF
:101BF000F582E43401F583E0FFEE14601214601AFC
:101C000024027021EF42E1EF42D9EF42D18019EF77
:101C100042E2EF42DAEF42D2800EEF42E3EF42DBE4
:101C2000EF42D380037F00227F012290FFFEE493E6
:101C3000FFF4FEA3E493FDB5060A8D8F90002F7488
:101C4000AAF08009758F2590002F74FFF075C606E5
:101C50009000F4EDF0A3EFF0E4F5C7F5C175CE42C6
:101C600075D606121EEFD2AF22AFD653C7FBE4F5EE
:101C7000D6C2D953A1EF539AF05391FE5387FC4338
:101C80008702000043910190FF0393F4FE90FF024E
:101C9000E493FDB506048D9A8003759A4C8FD602A5
:101CA0001F73787EE6FF6032E4F6EF24FE600C24BA
:101CB00082600D247F70237F018002E4FF021F2BCE
:101CC000121E10121F45121C6953DCF753E4F75320
:101CD000D4F7D2B39000907401F022E4FEEE75F0D8
:101CE00003A42416F582E4341FF583E493FDF46025
:101CF0001FEFB50516EE75F003A42417F582E43442
:101D00001FF583E493FE740193FF220EEEB407CD1A
:101D1000E4FEFF22E47871F608F67875F608F60816
:101D2000F608F6786FF608F6786DF608F690001863
:101D3000E0FF120D0D1212CF121A7C120AEE7F0A6A
:101D4000121E3C787BA60608A607227E007FE0E4F0
:101D5000FDED25E024B0F582E4341EF583E493F430
:101D6000601EED25E024B1F582E4341EF583E49392
:101D7000FCEF2DF582E43EF583ECF00DEDB410D1CF
:101D80002290001FE0FE900092E06F6005EFF0E40B
:101D9000A3F0900092E0B4FF02E4FEAF069000933F
:101DA000E004F0C39F50037F00229000937404F07E
:101DB0007F012243B14053FAF790FFF8E493B4F85F
:101DC0000B43FA0443F90243F901800353FAFB433E
:101DD000F90243F90153F9BF75FB4043FA0243A1ED
:101DE0004022E4786DF608F690009174FFF09000C0
:101DF0009EE0FFF46013EF14600304700C9000FB8E
:101E00007401F0788BE64408F690009E74FFF0228F
:101E1000E4F5D9F5D1F5E1F5D57580FFF5DAF5D220
:101E2000F5E2F5DD7590FFF5DBF5D3F5E3F5E57546
:101E3000A0FF43DC0843E40853D4F7229000E0EF0E
:101E4000B4FF057F017E0022E5822FF582E4358311
:101E5000F583E0FB9001ADE0FCA3E0FDAF037E0065
:101E60001204FF22E4900097F09001ABF0A3F090F1
:101E700001ADF0A37420F090002A74FFF0900120CF
:101E80007401F0A37400F0A374A0F02200004500D8
:101E9000004D00005500005D00001500001D000011
:101EA0002500002D00007E0000650101AD000067E7
:101EB00000020101020103010401053C06050702BD
:101EC000080A09020A020B280C3C0D1E0E01FF0134
:101ED000E4FD900010E0FFEDC39F501274002DF55B
:101EE00082E43400F583E0FF121BE40D80E422431A
:101EF0008901C28DD2A953B7FD53B8FDE49001B357
:101F0000F0A3F0758CFE758AC3D28CD2AF22010289
:101F1000040810204080010521060995020CF10CEF
:101F20000F411411A8041662FF00FFEFB40111C2A3
:101F300093C2927F0A121E3C787BA60608A607224F
:101F4000D293D2922243DC0843E40853D4F7D2B3AD
:101F500053B2FDE4F5BA5391DF43A10222D3EF9DC2
:101F6000EE9C4007EF9DFFEE9CFE22C3ED9FFFEC31
:101F70009EFE22D2DFC2DA538E1F438EE0D2D8D229
:101F8000D92212000E121D81EF7002FF227F012262
:101F9000121ED0021A7C53B2DF32FFFFFFFFFFFF99

:00000001FF
