:10000000021713C293C29275AD0C2202194412104A
:1000100077900010E0FF900091E0FEC39F5013EE38
:1000200025E02436F9C3E7943219E794004003E051
:10003000FF22900098E0FF25E02416F9D3E79432E0
:1000400019E794004001227FFF22FF021FA2AD07A3
:10005000ED25E02468F582E43400F583E07F00FEBE
:10006000ED25E02469F582E43400F583E02FFFE418
:100070003EFE22020AC5900194EFF0E4900197F051
:10008000A3F07F01121E25900199EEF0A3EFF0E49A
:10009000900194F0900010E0FF900194E0FEC39F67
:1000A00040030203E2900091E0C394F05013EE2568
:1000B000E02436F9D3E7941419E7940040030201D1
:1000C00060900194E0FF12004E900197EEF0A3EFD4
:1000D000F0900194E0FF25E02453F582E43401F52B
:1000E00083E0FCA3E04C701FEF25E02445F8E6FC1C
:1000F00008E6FDEF25E02443F582E43401F583ECC6
:10010000F0A3EDF002018C900194E0FD25E0244382
:10011000F582E43401F583E0FEA3E0FFED25E02461
:1001200045F8E6FC08E6FD121F69AC06AD07900134
:1001300097E0C313FEA3E013FFD3ED9FEC9E404C6A
:10014000900194E0FF25E02445F8E6FC08E6FDEF89
:1001500025E02443F582E43401F583ECF0A3EDF0CF
:10016000900194E0FF25E02453F582E43401F58307
:10017000E4F0A3F0EF25E025E02423F582E4340148
:10018000F58312079D000000000203D9900194E05E
:10019000FF25E02445F8E6FC08E6FDA3ECF0A3ED1E
:1001A000F0788CE61846705DEF25E02455F8E6FE01
:1001B00008E6FF121F69900197E0FCA3E0FDC39FD2
:1001C000EC9E5041900194E0FF25E02446F9EF2594
:1001D000E02455F8E6FA08E6FBC397EA1997500DB4
:1001E000ECC313FEED132BFFEE3AA380149001979E
:1001F000E0C313FEA3E013FFC3EB9FFFEA9E900151
:1002000095F0A3EFF0900194E0FF25E02446F9EF8C
:1002100025E02455F8E6FE08E6FFD397EE1997503F
:1002200003020377E025E02446F8C3EF96FDEE18BD
:1002300096FC900197E0FEA3E07802CEC313CE13A4
:10024000D8F9FFD3ED9FEC9E500302036890019410
:10025000E0FB24AFF582E43401F583E070369001D1
:1002600094E0FF25E02453F582E43401F583E4F0C3
:10027000A3F0EF25E025E02423F582E43401F583A3
:1002800012079D0000000074AF2BF582E43401F5E5
:10029000837401F0900194E0FF25E02453F582E49B
:1002A0003401F583E475F001120566EF25E025E0E1
:1002B0002423F582E43401F583C083C082E0F8A3EF
:1002C000E0F9A3E0FAA3E0FBC000900194E025E090
:1002D0002445F8E6FE08E6FFE4FCFDD000EB2FFF26
:1002E000EA3EFEED39FDEC38FCD082D08312079156
:1002F000900194E025E02453F582E43401F583E095
:10030000FEA3E0FFD39407EE9400406BAB07AA0670
:10031000E4F9F8900194E025E025E02423F582E457
:100320003401F583E0FCA3E0FDA3E0FEA3E0FF12AF
:10033000061D900194E0FD25E02455F8A60608A6C8
:1003400007ED25E02453F582E43401F583E4F0A3BE
:10035000F0ED25E025E02423F582E43401F5831255
:10036000079D00000000800F900194E024AFF5820B
:10037000E43401F583E4F0900194E0FF24AFF582CA
:10038000E43401F583E07051EF25E025E02423F506
:1003900082E43401F583C083C082E0F8A3E0F9A3CE
:1003A000E0FAA3E0FB900195E0FEA3E0FFE4FCFD92
:1003B000EB2FFFEA3EFEED39FDEC38FCD082D08316
:1003C000120791900194E025E02453F582E4340172
:1003D000F583E475F001120566900194E004F002E3
:1003E0000094D3788CE6940018E69400400708E661
:1003F0001618700116788CE618466016900199E080
:10040000FEA3E07802CEC313CE13D8F9F0EE90012C
:1004100099F0E4900194F0900010E0FF900194E0D6
:10042000FEC39F40030204B874AF2EF582E434018A
:10043000F583E0707AEE25E02453F582E43401F58B
:1004400083E0FEA3E0FF900199E0FCA3E0FDC3EF91
:100450009DEE9C405AAB07AA06E4F9F8900194E09F
:1004600025E025E02423F582E43401F583E0FCA3B4
:10047000E0FDA3E0FEA3E0FF12061D900194E0FD65
:1004800025E02455F8A60608A607ED25E02453F537
:1004900082E43401F583E4F0A3F0ED25E025E024C7
:1004A00023F582E43401F58312079D0000000090DB
:1004B0000194E004F002041722BB010689828A83BA
:1004C000E0225002E722BBFE02E32289828A83E413
:1004D0009322BB010CE58229F582E5833AF583E09E
:1004E000225006E92582F8E622BBFE06E92582F8BD
:1004F000E222E58229F582E5833AF583E49322EF4F
:100500008DF0A4A8F0CF8CF0A428CE8DF0A42EFE00
:1005100022BC000BBE0029EF8DF084FFADF022E479
:10052000CCF875F008EF2FFFEE33FEEC33FCEE9DB8
:10053000EC984005FCEE9DFE0FD5F0E9E4CEFD22DF
:10054000EDF8F5F0EE8420D21CFEADF075F008EF6A
:100550002FFFED33FD4007985006D5F0F222C398E7
:10056000FD0FD5F0EA22C5F0F8A3E028F0C5F0F8B9
:10057000E582158270021583E038F022A3F8E0C509
:10058000F025F0F0E582158270021583E0C838F09E
:10059000E822E88FF0A4CC8BF0A42CFCE98EF0A428
:1005A0002CFC8AF0EDA42CFCEA8EF0A4CDA8F08BF4
:1005B000F0A42DCC3825F0FDE98FF0A42CCD35F03A
:1005C000FCEB8EF0A4FEA9F0EB8FF0A4CFC5F02ECB
:1005D000CD39FEE43CFCEAA42DCE35F0FDE43CFC34
:1005E0002275F008758200EF2FFFEE33FECD33CD7C
:1005F000CC33CCC58233C5829BED9AEC99E58298C9
:10060000400CF582EE9BFEED9AFDEC99FC0FD5F0C7
:10061000D6E4CEFBE4CDFAE4CCF9A88222B800C13E
:10062000B90059BA002DEC8BF084CFCECDFCE5F0AB
:10063000CBF97818EF2FFFEE33FEED33FDEC33FCF2
:10064000EB33FB10D703994004EB99FB0FD8E5E49B
:10065000F9FA227818EF2FFFEE33FEED33FDEC337D
:10066000FCC933C910D7059BE99A4007EC9BFCE90C
:100670009AF90FD8E0E4C9FAE4CCFB2275F010EF48
:100680002FFFEE33FEED33FDCC33CCC833C810D78B
:10069000079BEC9AE899400AED9BFDEC9AFCE899DF
:1006A000F80FD5F0DAE4CDFBE4CCFAE4C8F922EB9C
:1006B0009FF5F0EA9E42F0E99D42F0E89C45F02269
:1006C000E8600FECC313FCED13FDEE13FEEF13FF18
:1006D000D8F122BB010789828A830207FE5005E90F
:1006E000F80207F2BBFE05E9F802080A89828A834C
:1006F000020816BB010DE58229F582E5833AF583F0
:100700000207FE5007E92582F80207F2BBFE07E95F
:100710002582F802080AE58229F582E5833AF58305
:10072000020816BB010789828A830207915005E9F6
:10073000F802085CBBFE05E9F802086822BB010D5F
:10074000E58229F582E5833AF5830207915007E9AE
:100750002582F802085CBBFE07E92582F8020868DA
:1007600022BB010DE58229F582E5833AF583020873
:10077000335007E92582F8020826BBFE07E92582E7
:10078000F802083FE58229F582E5833AF5830208FD
:100790004CECF0A3EDF0A3EEF0A3EFF022A88285DD
:1007A00083F0D083D0821207B41207B41207B412B8
:1007B00007B4E473E493A3C583C5F0C583C8C582B9
:1007C000C8F0A3C583C5F0C583C8C582C822BB01D4
:1007D0000DE58229F582E5833AF58302079D5007EE
:1007E000E92582F8020874BBFE07E92582F80208B1
:1007F0008D22E6FC08E6FD08E6FE08E6FF22E0FCA6
:10080000A3E0FDA3E0FEA3E0FF22E2FC08E2FD0876
:10081000E2FE08E2FF22E493FC740193FD7402936C
:10082000FE740393FF22E6FB08E6F908E6FA08E601
:10083000CBF822E0F8A3E0F9A3E0FAA3E0FB22E280
:10084000FB08E2F908E2FA08E2CBF822E493F87434
:100850000193F9740293FA740393FB22ECF608ED0A
:10086000F608EEF608EFF622ECF208EDF208EEF2EA
:1008700008EFF222D083D082E493F608740193F655
:1008800008740293F608740393F6740473D083D04B
:1008900082E493F208740193F208740293F20874EC
:1008A0000393F2740473E4900194F0900010E0FF5D
:1008B000900194E0C39F505EE0FB25E025E02423F7
:1008C000F582E43401F58312079D00000000EB255A
:1008D000E02443F582E43401F583E4F0A3F09001D1
:1008E00094E0FF25E02453F582E43401F583E4F03D
:1008F000A3F0900120E0FBA3E0FAA3E0F975F00477
:10090000EFA4F58285F0831207CE0000000090016D
:1009100094E004F08095121626E4900194F0900083
:1009200010E0FF900194E0FEC39F5069EE25E025A2
:10093000E02423F582E43401F583C083C082E0FC27
:10094000A3E0FDA3E0FEA3E0FF900120E0FBA3E015
:10095000FAA3E0F9900194E075F004A4F58285F023
:1009600083120761EF2BFFEE3AFEED39FDEC38FC08
:10097000D082D083120791900194E025E02453F5B2
:1009800082E43401F583E475F00112056690019468
:10099000E004F08089C3900154E09405900153E095
:1009A00094005003020916E4900194F0900010E0C6
:1009B000FF900194E0FEC39F4003020ABEEE25E0D3
:1009C0002453F582E43401F583E0FEA3E0FBAA069C
:1009D000E4F9F8900194E025E025E02423F582E491
:1009E0003401F583E0FCA3E0FDA3E0FEA3E0FF12E9
:1009F000061D900195120791E47F787E69FDFC90B9
:100A00000195E0F8A3E0F9A3E0FAA3E0FBD3120616
:100A1000AF403E900195E0FCA3E0FDA3E0FEA3E023
:100A20002458FFEE349EFEED34FFFDEC34FFFC90C5
:100A30000194E0FB25E025E02400F582E43401F593
:100A400083120791EB25E02455F876610876A8809B
:100A50002E900194E0FB25E025E02400F582E434AB
:100A600001F58312079D00000000900195A3A3E00B
:100A7000FEA3E0FFEB25E02455F8A60608A60790A4
:100A80000194E0FF25E02425F8E4F608F6EF25E0E0
:100A900025E02423F582E43401F58312079D00004C
:100AA0000000900194E025E02453F582E43401F540
:100AB00083E4F0A3F0900194E004F00209AC90000C
:100AC00097E004F022C0E0C0F0C083C082C0D075BF
:100AD000D00830FD03020CC920FC03020B6478AF80
:100AE000E6F5FC53A1BFC2FF751001AB12AA13A912
:100AF000148510827583001204D2F511C2FF43F9E8
:100B00002078B2761308768820FF1220FA0F78B387
:100B1000E6161870011678B3E6184670EB30FA0343
:100B2000020CC98511FC0510AB12AA13A91485107B
:100B3000827583001204D2F511C2FF43F92078B206
:100B4000761308768820FF1220FA0F78B3E616187D
:100B500070011678B3E6184670EB78B3E618467065
:100B6000BC020CC953A1BFC2FF751000C2FF43F9FC
:100B70002078B2761308768820FF1220FA0F78B317
:100B8000E6161870011678B3E6184670EB20FB40A5
:100B900085FC1130FA03020CC9748E2510F8A611D9
:100BA0000510C2FF43F92078B2761308768820FF3B
:100BB0001220FA0F78B3E6161870011678B3E6180B
:100BC0004670EB85FC1178B3E6184670C6020CC976
:100BD000788DA6FCAB12AA13A914AF1005108F8252
:100BE0007583001204D2F511C2FF43F92078B27662
:100BF0001308768820FF1220FA0F78B3E6161870D3
:100C0000011678B3E6184670EB30FC78788DE6FF75
:100C100054F064806003020CC974002FF582E43440
:100C200000F583E075F003A42475F582E4341EF525
:100C300083E493F9740193FA740293900181C9F0EB
:100C4000A3EAF0A3E9F030FA03020CC9900181E0B5
:100C5000FBA3E475F00112057CA9F0FA1204B9F5C2
:100C6000FCC2FF43F92078B2761308768820FFD6BD
:100C700020FAD378B3E6161870011678B3E6184652
:100C800070EB80C2788DE62400F9E43400FA90011C
:100C9000817401F0A3EAF0A3E9F020FA2C788DE644
:100CA00006248EF8A6FCC2FF43F92078B27613081A
:100CB000768820FFE520FAE278B3E6161870011670
:100CC00078B3E6184670EB80D1C2FF43F92043A108
:100CD00040789A7601D0D0D082D083D0F0D0E03264
:100CE000AB07E4900194F0A312079D000000009070
:100CF0000199E4F0A37464F0A3E4F0A37464F0E455
:100D0000A3F0900019E0F5C290FB04EBF09001A075
:100D10007403F0A374BBF0E4F5C375BB2775B3107F
:100D2000F5AAF5BEF5BFF5BC75BD2175E61890FBBB
:100D300005743BF0E490FB09F090FB0A74F0F0902E
:100D4000FB0B743CF090FB0CF090FB0D7401F0E495
:100D500090019EF0900010E0FF90019EE0C39F5034
:100D60002E900120E0FBA3E0FAA3E0F990019EE0C1
:100D7000FF75F004A4F58285F0831207CE00000011
:100D80000074652FF8764690019EE004F080C5E47B
:100D9000F5BC90019EF090FB0674FFF090FB07F00D
:100DA00090FB08F0E490019FF0900010E0FF9001AC
:100DB0009FE0C39F50361218AA90FB00E0FCA3E00E
:100DC000FDA3E0FEA3E0FF900120E0FBA3E0FAA377
:100DD000E0F990019FE075F004A4F58285F083129C
:100DE000073DD2D890019FE004F080BDE490FB065F
:100DF000F090FB07F090FB08F090019FF09000103E
:100E0000E0FF90019FE0C39F50571218AA90012065
:100E1000E0FBA3E0FAA3E0F990019FE075F004A4E1
:100E2000F582E92582F9EA35F0FAC003C002C00173
:100E30001206D390FB00E0F8A3E0F9A3E0FAA3E0E8
:100E4000FBC3EF9BFFEE9AFEED99FDEC98FCD00101
:100E5000D002D003120723D2D890019FE004F08083
:100E60009CE4900194F090019FF0900010E0FF90BE
:100E7000019FE0C39F505A900120E0FBA3E0FAA33A
:100E8000E0F990019FE075F004A4F58285F08312EB
:100E900006F390019FE0FD25E02415F8A60608A6BC
:100EA00007ED25E02415F8E6FE08E6FFD39001A142
:100EB000E09F9001A0E09E400A90019FE02465F829
:100EC000068006900194E004F090019FE004F08019
:100ED00099900010E0FF900194E0C39F500F9001A3
:100EE0009EE004F0E0C394325003020D9622E49099
:100EF0000194F0900010E0FF900194E0C39F400344
:100F0000021074900120E0FBA3E0FAA3E0F9900145
:100F100094E075F004A4F58285F0831206F3EC4D9D
:100F20004E4F700302105B900194E025E025E02411
:100F300000F582E43401F583E0F8A3E0F9A3E0FAD8
:100F4000A3E0FBD31206AF40037F0322900120E011
:100F5000FBA3E0FAA3E0F9900194E075F004A4F596
:100F60008285F0831206F3900194E025E025E024C9
:100F700000F582E43401F583E0F8A3E0F9A3E0FA98
:100F8000A3E0FBC3EF9BFFEE9AFEED99FDEC98FC0E
:100F9000900195120791E47FFF7EFFFDFC90019583
:100FA000E0F8A3E0F9A3E0FAA3E0FBC31206AF4028
:100FB000037F0322E47F03FEFDFC900195E0F8A38C
:100FC000E0F9A3E0FAA3E0FB120592C004A905AA88
:100FD00006AB07900194E025E0246DF8E6FE08E6F4
:100FE000FFE4FCFDD000EB2FFFEA3EFEED39FDEC07
:100FF00038FC78021206C0E0FD25E02445F8A6067C
:1010000008A607ED25E02445F8E6FE08E6FFED25F5
:10101000E0246DF8A60608A607ED25E02456F9EDB4
:1010200025E02445F8E6FE08E6FFD397EE19974041
:101030001BE025E02456F8C3EF96FFEE1896FEE07D
:1010400025E02425F8A60608A607801F900194E055
:1010500025E02425F8E4F608F68010900194E025B8
:10106000E02425F8E4F608F67F0322900194E004DA
:10107000F0020EF37F0722E4900198F0A3F0A3F0B2
:10108000A3F07815E6FE08E6FF900194EEF0A3EFDA
:10109000F0A3EEF0A3EFF0E4FFF9FE900010E0FD06
:1010A000EEC39D5055EE25E02415F8E6FC08E6FD5C
:1010B000C3900195E09D900194E09C5011AF06EE25
:1010C00025E02415F8E6FD08E6CDF0A3EDF0EE25C9
:1010D000E02415F8E6FC08E6FDD3900197E09D902A
:1010E0000196E09C4011A906EE25E02415F8E6FDE6
:1010F00008E6CDF0A3EDF00E80A1900098EFF0A3EC
:10110000E9F0E4900194F0A3F0FE900010E0FDEE11
:10111000C39D507AEE25E02415F8E6FC08E6FDD3E1
:101120009423EC9400400690019BE004F0D3ED94EE
:101130002DEC94004006900198E004F0D3ED943734
:10114000EC94004006900199E004F0D3ED9441EC5A
:101150009400400690019AE004F0900098E06E60E0
:1011600029EE25E02415F8E6FC08E6FDC39001957C
:10117000E09D900194E09C5011AF06EE25E024150F
:10118000F8E6FD08E6CDF0A3EDF00E02110A90009E
:101190009DEFF090019BE090009FF0900198E0900F
:1011A000009AF0900199E090009BF090019AE090F5
:1011B000009CF0224101B1FF4101B2084801A200A8
:1011C00001020408102040500184012C00AA012CC7
:1011D000012C012C012C012C012C48017701020467
:1011E000081020408041017F00610000000D11FFC8
:1011F000FFFFFFFFFFFFFFFFFFFFFFFFFF020838BA
:101200008000000032180C060000280A02020000CC
:1012100000000000000205FFFF000000AA0000001F
:10122000000000000000646464646464646400009E
:1012300000000000000000000000000000000000AE
:10124000000000000000000000000000000000009E
:101250000000000000012C00AA012C012C012C012F
:101260002C012C012C012C012C012C012C00010241
:10127000030405060708090A0B0C0D0E0F01FFFFFA
:1012800000008000000000000000000000000000DE
:10129000000000000000000000000000000000004E
:1012A000000000000000000000000000000000003E
:1012B000000000000000000000000000000000002E
:1012C000000000000000000000000000000000001E
:1012D000000000000000000000000000000000000E
:1012E000000000000000000000000000FF0075E6A4
:1012F0001875CF1F75C30175BB3875B38090019405
:101300007407F0900194E0FF7021047E00A80708A4
:101310008005C333CE33CED8F9FF90FB0AE0FDEF52
:101320005D7008900194E014F080D8900194E0FF83
:101330007401A807088002C333D8FC90FB0AF09020
:10134000FB0B7401F090FB0CF090019512079D00CF
:10135000000000E4900194F0900010E0FF900194F0
:10136000E0FEC39F505274002EF582E43400F583F2
:10137000E0FFF4603B1218BE90FB00E0FCA3E0FD30
:10138000A3E0FEA3E0FF900195E0F8A3E0F9A3E05D
:10139000FAA3E0FBC31206AF501490FB00E0FCA3DD
:1013A000E0FDA3E0FEA3E0FF900195120791D2D8E3
:1013B000900194E004F080A0900195E0FCA3E0FD92
:1013C000A3E0FEA3E0FFE47B02FAF9F81205929095
:1013D0000195120791900195E0FCA3E0FDA3E0FECA
:1013E000A3E0FF78101206C0900020EFF090019566
:1013F000E0FCA3E0FDA3E0FEA3E0FF78081206C036
:10140000900021EFF0900195A3A3A3E0900022F0BB
:1014100022E4FF12004EE4FCFDC004C005C006C07B
:10142000077825E6FE08E6FFE47B64FAF9F8120582
:1014300092D003D002D001D00012061D900195EE8B
:10144000F0A3EFF09001947401F0900010E0FF9091
:101450000194E0F9C39F505EAF0112004EE4FCFD21
:10146000C004C005C006C007900194E025E0242513
:10147000F8E6FE08E6FFE47B64FAF9F8120592D07C
:1014800003D002D001D00012061D900197EEF0A308
:10149000EFF0D3900196E09F900195E09E400F9071
:1014A0000197E0FFA3E0900195CFF0A3EFF090014A
:1014B00094E004F08094E4900194F0900010E0FF38
:1014C000900194E0F9C39F5068AF0112004EE4FC14
:1014D000FDC004C005C006C007900194E025E024CB
:1014E00025F8E6FE08E6FFE47B64FAF9F8120592B7
:1014F000D003D002D001D00012061D900197EEF06B
:10150000A3EFF0900195E0FCA3E0FDC3EF9DFDEE9D
:101510009CFC900194E0FB25E02415F8A60408A6A5
:1015200005EB25E02435F8A60608A607E004F080C0
:101530008A22121A301200039000907401F0121ED9
:101540004D121B02121D3453D4F743DC0853E4F749
:10155000D2B390009E74FFF0121D9C43D40343E469
:101560000343B003900090E024FD603114603924FF
:10157000FE604E14605514606524077067121C4DA0
:10158000121E4D121BB5121F9C121CFD121D9C7FBA
:101590000A121E25788BA60608A6078041121BB5E5
:1015A000121F9C121CFD80369001ACE004F0700606
:1015B0009001ABE004F01216269000907406F080C3
:1015C00023120EEE900090EFF080191217E99000B0
:1015D00090EFF0789BE678AFF61219BE8006900087
:1015E000907404F09000FBE06029E4789AF6C2B3AE
:1015F000F0900175F0A3F0900176E004F070069091
:101600000175E004F0900175E07004A3E06450708F
:10161000E6D2B3789AE66006789BE64408F6D2D81C
:10162000121C8B02156490001AE090019BF0E4906C
:101630000199F0900010E0FF900199E0FEC39F50E7
:1016400024900120E0FBA3E0FAA3E0F975F004EE9A
:10165000A4F58285F0831207CE0000000090019966
:10166000E004F080CE75E61875CF1F90FB0674FF7E
:10167000F090FB07F090FB08F0900018E090FB045E
:10168000F0900020E0F5C3A3E0F5BBA3E0F5B3E4E0
:10169000F5BC900199F090019BE0FF900199E0C3A7
:1016A0009F5069E4A3F0900010E0FF90019AE0C31E
:1016B0009F50501218AA900120E0FBA3E0FAA3E08B
:1016C000F990019AE075F004A4F582E92582F9EA1F
:1016D00035F0FAC002C0011206D390FB00E0F8A377
:1016E000E0F9A3E0FAA3E02FFFEA3EFEE93DFDE8C2
:1016F0003CFCD001D002120723D2D890019AE0041A
:10170000F080A3900199E004F002169675E6187532
:10171000CF1F2243F580C2DC0020DCF790FF03E4FA
:1017200093FFF4FE90FF02E493FDB506048D9A80CA
:1017300003759A4C90FF05E493FFF4FE90FF04E4D8
:1017400093FDB506048D8480037584049000007FAA
:10175000007E04E4F0A3DFFCDEFA78FFE4F6D8FDB7
:101760007581B30217A4020000021532E493A3F8B6
:10177000E493A34003F68001F208DFF48029E493A8
:10178000A3F85407240CC8C333C4540F4420C8839F
:101790004004F456800146F6DFE4800B01020408A1
:1017A000102040809011B4E47E019360BCA3FF54EC
:1017B0003F30E509541FFEE493A360010ECF54C0EF
:1017C00025E060A840B8E493A3FAE493A3F8E49377
:1017D000A3C8C582C8CAC583CAF0A3C8C582C8CA7F
:1017E000C583CADFE9DEE780BE121411121F8EBF67
:1017F000010A900092E0FF12007680030218A47F95
:1018000002121E25D37886E69F18E69E40028015B8
:10181000787FE6FE08E6FFD39400EE94004013EFD5
:1018200064014E7005121DCB80757880E616187025
:101830000116900092E09001B1F02410601614603F
:101840002124F27035121DCBE4787DF608F608F6F7
:1018500008F68050121DCB7880E6184670467F0649
:10186000800C121DCB7880E6184670387F04121E5B
:1018700025787FA60608A607802AE4787FF608F672
:101880009001B1E0FF121B62787E06E61870010637
:101890007F05121E25D3787EE69F18E69E4005122E
:1018A0001CFD80009001B2E0FF22E0FF2465F8E615
:1018B000F5BD74002FF582E43400F583E0FFEF13EB
:1018C0001313541FFEEF5407901F1A93FDEFD39488
:1018D0001740037F0022EE14600F1460142402707E
:1018E00018ED42E1ED42D98013ED42E2ED42DA809B
:1018F0000BED42E3ED42DB80037F0022EF4420F555
:10190000E675C70D00000000000043C101E5C130CD
:10191000E1FB53C1FD75E618EE14600F146014244A
:10192000027018EDF452E152D98013EDF452E252F4
:10193000DA800BEDF452E352DB80037F0022E4F502
:10194000C77F0122C0E0C0F0C083C082C0D075D084
:1019500000C000C004C005C006C007C28D758CFD64
:10196000758A869001B4E004F070069001B3E0043B
:10197000F09001B3E0FEA3E0FF7C077DD0120511DB
:10198000ED4C70259001ABE0FEA3E0FFD3940AEE8E
:10199000940040089001ADEEF0A3EFF09001ABE4AD
:1019A000F0A3F09001B3F0A3F0D007D006D005D09B
:1019B00004D000D0D0D082D083D0F0D0E032E490F8
:1019C0000194F0900194E0FF25E02435F8E6FC084E
:1019D000E6FDEF75F008A424A1F8A60408A605E02A
:1019E000FF25E02425F8E6FC08E6FDEF75F008A4E5
:1019F00024A3F8A60408A605900120E0FBA3E0FAC2
:101A0000A3E0F9900194E075F004A4F58285F083D9
:101A10001206F378081206C0900194E075F008A44D
:101A200024A5F8A60608A607E004F0E0B402942274
:101A300043850343910190FF05E493FFF4FE90FF7B
:101A400004E493FDB506048D8480037584045384F7
:101A5000F04384079000F2EDF0A3EFF090FF03E471
:101A600093FFF4FE90FF02E493FDB506048D9A8087
:101A700003759A4C9000F0EDF0A3EFF053E1205382
:101A8000D52053802053E23C53DD3C53903C53E33C
:101A90000353E50353A00353E40753B00722900018
:101AA00019E0F5C2900018E090FB04F0900020E0EF
:101AB000F5C3A3E0F5BBA3E0F5B3E4F5AA900014E9
:101AC000E0F5BEA3E0F5BFA3E0F5BCA3E0F5BD756E
:101AD000E61890FB05743BF090FB0674FFF090FB5A
:101AE00007F090FB08F0E490FB09F090FB0A74F01B
:101AF000F090FB0B743CF090FB0CF090FB0D74012C
:101B0000F022E4789BF608760708F608F690019430
:101B1000F0900194E0FFC39402503D12004E9001FA
:101B200094E0FD75F008A4249FF8A60608A607ED2A
:101B300075F008A424A1F8E4F608F6ED75F008A401
:101B400024A3F8E4F608F6ED75F008A424A5F8E45B
:101B5000F608F6E004F080B97512007513007514EC
:101B60009B22E4FE900010E0FDEFC39D501E90000C
:101B700091E06F6017E4787DF608F674A22FF58285
:101B8000E43401F583E0FE900091EFF0900091E0E5
:101B9000FF90009EE06F6014EF14600304700D90DE
:101BA00000FBE0700704F0EE04789BF6900091E0F3
:101BB00090009EF02290009174FFF0A3F0E4A3F057
:101BC000787DF608F67881F608F608F608F608F645
:101BD00008F608F608F6787FF608F6FF900010E0A1
:101BE000FEEFC39E501F900120E0FBA3E0FAA3E0AC
:101BF000F975F004EFA4F58285F0831207CE00009A
:101C000000000F80D722EF131313541FFEEF540769
:101C10002477F582E43401F583E0FFEE14601214BA
:101C2000601A24027021EF42E1EF42D9EF42D180E5
:101C300019EF42E2EF42DAEF42D2800EEF42E3EFD9
:101C400042DBEF42D380037F00227F012290FFFE20
:101C5000E493FFF4FEA3E493FDB5060A8D8F900094
:101C60002F74AAF08009758F2590002F74FFF075EE
:101C7000C60C9000F4EDF0A3EFF0E4F5C7F5C175E4
:101C8000CE4275D606121EFBD2AF22788EE6FF60DA
:101C900032E4F6EF24FE600C2482600D247F702372
:101CA0007F018002E4FF021F37121DF9121F51123B
:101CB0001E9953DCF753E4F753D4F7D2B390009056
:101CC0007401F022E4FEEE75F003A42422F582E410
:101CD000341FF583E493FDF4601FEFB50516EE7530
:101CE000F003A42423F582E4341FF583E493FE7407
:101CF0000193FF220EEEB407CDE4FEFF22E47881CB
:101D0000F608F67885F608F608F608F6787FF608FD
:101D1000F6787DF608F6900018E0FF120CE012123B
:101D2000EE121A9E1208A67F0A121E25788BA606AE
:101D300008A607227E007FE0E4FDED25E024BCF547
:101D400082E4341EF583E493F4601EED25E024BDA7
:101D5000F582E4341EF583E493FCEF2DF582E43E36
:101D6000F583ECF00DEDB410D12290001FE0FE9051
:101D70000092E06F6005EFF0E4A3F0900092E0B411
:101D8000FF02E4FEAF06900093E004F0C39F50030F
:101D90007F00229000937402F07F012243B14053F0
:101DA000FAF790FFF8E493B4F80B43FA0443F9020E
:101DB00043F901800353FAFB43F90243F90153F954
:101DC000BF75FB4053FAFD43A14022E4787DF6083D
:101DD000F690009174FFF090009EE0FFF46013EF26
:101DE00014600304700C9000FB7401F0789BE644CF
:101DF00008F690009E74FFF022E4F5D9F5D1F5E1E4
:101E0000F5D57580FFF5DAF5D2F5E2F5DD7590FFD1
:101E1000F5DBF5D3F5E3F5E575A0FF43DC0843E416
:101E20000853D4F7229000E0EFB4FF057F017E0055
:101E300022E5822FF582E43583F583E0FB9001AD46
:101E4000E0FCA3E0FDAF037E001204FF22E490005B
:101E500097F09001ABF0A3F09001ADF0A37420F0E7
:101E600090002A74FFF09001207401F0A37400F038
:101E7000A374A0F02200004500004D0000550000B2
:101E80005D00001500001D00002500002D00008EE3
:101E90000000650101AD000067AFD653C7FBE4F554
:101EA000D6C2D953A1EF539AF05391FE5387FC4306
:101EB000870200004391018FD6021F7F00020101BB
:101EC000020103010401053C06050702080A090294
:101ED0000A020B280C3C0D1E0E01FF01E4FD9000D0
:101EE00010E0FFEDC39F501274002DF582E4340022
:101EF000F583E0FF121C060D80E422438901C28DA8
:101F0000D2A953B7FD53B8FDE49001B3F0A3F07527
:101F10008CFD758A86D28CD2AF2201020408102073
:101F20004080010521060995020CF10C0F411411A6
:101F3000A8041662FF00FFEFB40111C293C2927FA2
:101F40000A121E25788BA60608A60722D293D292E3
:101F50002243DC0843E40853D4F7D2B353B2FDE480
:101F6000F5BA5391DF43A10222D3EF9DEE9C4007C7
:101F7000EF9DFFEE9CFE22C3ED9FFFEC9EFE22D262
:101F8000DFC2DA538E1F438EE0D2D8D2D92212009C
:101F90000E121D6AEF7002FF227F0122121EDC0268
:101FA0001A9E53B2DF32FFFFFFFFFFFFFFFFFFFF6D
:101FB000FFFFFFFFFFFFFFFFFFFFFFFFFFFFFFFF31

:00000001FF
