:10000000021945C293C29275AD0C22021AB5E4786A
:1000100081F608F67885F608F608F608F6787FF691
:1000200008F6787DF608F6788BF608F6900018E06A
:10003000FF120B3C121331121C091209067F0A121F
:100040001F4D788DA60608A60722FF0220C7AD0720
:10005000ED25E02468F582E43400F583E07F00FEBE
:10006000ED25E02469F582E43400F583E02FFFE418
:100070003EFE22020D4A900195EFF0E4900198F0C7
:10008000A3F07F01121F4D90019AEEF0A3EFF0D381
:10009000788EE6940018E69400400708E61618707B
:1000A0000116788EE61846601690019AE0FEA3E0ED
:1000B0007802CEC313CE13D8F9F0EE90019AF0E493
:1000C0009001B1F0900195F0900010E0FF90019543
:1000D000E0FEC39F4003020440900091E0C394F00F
:1000E0005013EE25E02436F9D3E7941419E7940071
:1000F0004003020337900195E0FF12004E900198F3
:10010000EEF0A3EFF0900195E0FF25E02446F9EF33
:1001100025E02455F8E6FE08E6FFD397EE19975040
:10012000030201ADE025E02446F8C3EF96FDEE188A
:1001300096FC900198E0C313FEA3E013FFD3ED9F5C
:10014000EC9E40699001B1E004F09001B0E0705D78
:10015000900195F0E0FF25E02453F582E43401F5A9
:1001600083E4F0A3F0EF25E025E02423F582E434D6
:1001700001F583120822000000009001957401F03F
:10018000E0FF25E02453F582E43401F583E4F0A395
:10019000F0EF25E025E02423F582E43401F5831215
:1001A0000822000000009001B07401F0229001B01C
:1001B000E0700302029F900195E0FF25E02453F5D3
:1001C00082E43401F583E475F0011205C6EF25E001
:1001D00025E02423F582E43401F583C083C082E066
:1001E000F8A3E0F9A3E0FAA3E0FBC000900195E0DA
:1001F00025E02445F8E6FE08E6FFE4FCFDD000EB30
:100200002FFFEA3EFEED39FDEC38FCD082D08312A0
:100210000816900195E025E02453F582E43401F5B9
:1002200083E0FEA3E0FFD39407EE94004071AB0798
:10023000AA06E4F9F8900195E025E025E02423F5ED
:1002400082E43401F583E0FCA3E0FDA3E0FEA3E03B
:10025000FF12067D900195E0FD25E02455F8A606E5
:1002600008A607ED25E02453F582E43401F583E484
:10027000F0A3F0ED25E025E02423F582E43401F538
:100280008312082200000000900195E06005E490D0
:1002900001B0F07F0A121F4D788DA60608A60790C0
:1002A00001B0E06003020437900195E0FF25E024EF
:1002B00053F582E43401F583E0FCA3E04C701FEFBA
:1002C00025E02445F8E6FC08E6FDEF25E02443F5AB
:1002D00082E43401F583ECF0A3EDF00203639001B6
:1002E00095E0FD25E02443F582E43401F583E0FE4A
:1002F000A3E0FFED25E02445F8E6FC08E6FD12202A
:100300008EAC06AD07900198E0C313FEA3E013FF87
:10031000D3ED9FEC9E404C900195E0FF25E02445F5
:10032000F8E6FC08E6FDEF25E02443F582E434011D
:10033000F583ECF0A3EDF0900195E0FF25E0245368
:10034000F582E43401F583E4F0A3F0EF25E025E045
:100350002423F582E43401F5831208220000000012
:10036000020437900195E0FF25E02445F8E6FC08FB
:10037000E6FDA3ECF0A3EDF0788EE618467064EF8E
:1003800025E02455F8E6FE08E6FF12208E9001983D
:10039000E0FAA3E0FBC39FEA9E5048900195E0FF7E
:1003A00025E02445F8E6F58308E6F582EF25E0240C
:1003B00055F8E6FC08E6FDC39582EC9583500CEAFF
:1003C000C313FEEB132DFFEC3E8011900198E0C3A8
:1003D00013FEA3E013FFC3ED9FFFEC9E900196F088
:1003E000A3EFF0900195E025E025E02423F582E4D9
:1003F0003401F583C083C082E0F8A3E0F9A3E0FAFA
:10040000A3E0FB900196E0FEA3E0FFE4FCFDEB2FF0
:10041000FFEA3EFEED39FDEC38FCD082D0831208B5
:1004200016900195E025E02453F582E43401F5832C
:10043000E475F0011205C6900195E004F00200C8D1
:10044000E49001B1F0900195F0900010E0FF900170
:1004500095E0FEC39F502EEE25E02453F582E43450
:1004600001F583E0FEA3E0FF90019AE0FCA3E0FD2C
:10047000D3EF9DEE9C40069001B1E004F090019511
:10048000E004F080C49001B1E07003020518E4902C
:100490000195F0900010E0FF900195E0FEC39F50A1
:1004A00077EE25E02453F582E43401F583E0FEA3E2
:1004B000E0FF4E605AAB07AA06E4F9F8900195E018
:1004C00025E025E02423F582E43401F583E0FCA354
:1004D000E0FDA3E0FEA3E0FF12067D900195E0FDA4
:1004E00025E02455F8A60608A607ED25E02453F5D7
:1004F00082E43401F583E4F0A3F0ED25E025E02467
:1005000023F582E43401F5831208220000000090F4
:100510000195E004F002049322BB010689828A83DC
:10052000E0225002E722BBFE02E32289828A83E4B2
:100530009322BB010CE58229F582E5833AF583E03D
:10054000225006E92582F8E622BBFE06E92582F85C
:10055000E222E58229F582E5833AF583E49322EFEE
:100560008DF0A4A8F0CF8CF0A428CE8DF0A42EFEA0
:1005700022BC000BBE0029EF8DF084FFADF022E419
:10058000CCF875F008EF2FFFEE33FEEC33FCEE9D58
:10059000EC984005FCEE9DFE0FD5F0E9E4CEFD227F
:1005A000EDF8F5F0EE8420D21CFEADF075F008EF0A
:1005B0002FFFED33FD4007985006D5F0F222C39887
:1005C000FD0FD5F0EA22C5F0F8A3E028F0C5F0F859
:1005D000E582158270021583E038F022A3F8E0C5A9
:1005E000F025F0F0E582158270021583E0C838F03E
:1005F000E822E88FF0A4CC8BF0A42CFCE98EF0A4C8
:100600002CFC8AF0EDA42CFCEA8EF0A4CDA8F08B93
:10061000F0A42DCC3825F0FDE98FF0A42CCD35F0D9
:10062000FCEB8EF0A4FEA9F0EB8FF0A4CFC5F02E6A
:10063000CD39FEE43CFCEAA42DCE35F0FDE43CFCD3
:100640002275F008758200EF2FFFEE33FECD33CD1B
:10065000CC33CCC58233C5829BED9AEC99E5829868
:10066000400CF582EE9BFEED9AFDEC99FC0FD5F067
:10067000D6E4CEFBE4CDFAE4CCF9A88222B800C1DE
:10068000B90059BA002DEC8BF084CFCECDFCE5F04B
:10069000CBF97818EF2FFFEE33FEED33FDEC33FC92
:1006A000EB33FB10D703994004EB99FB0FD8E5E43B
:1006B000F9FA227818EF2FFFEE33FEED33FDEC331D
:1006C000FCC933C910D7059BE99A4007EC9BFCE9AC
:1006D0009AF90FD8E0E4C9FAE4CCFB2275F010EFE8
:1006E0002FFFEE33FEED33FDCC33CCC833C810D72B
:1006F000079BEC9AE899400AED9BFDEC9AFCE8997F
:10070000F80FD5F0DAE4CDFBE4CCFAE4C8F922EB3B
:100710009FF5F0EA9E42F0E99D42F0E89C45F02208
:10072000E8600FECC313FCED13FDEE13FEEF13FFB7
:10073000D8F122BB010789828A830208775005E934
:10074000F80207C1BBFE05E9F802088389828A83A3
:1007500002088FBB010DE58229F582E5833AF58316
:100760000208775007E92582F80207C1BBFE07E9B6
:100770002582F8020883E58229F582E5833AF5832C
:1007800002088FBB010789828A830208165005E997
:10079000F802080ABBFE05E9F80208C822BB010DF1
:1007A000E58229F582E5833AF5830208165007E9C8
:1007B0002582F802080ABBFE07E92582F80208C86C
:1007C00022E6FC08E6FD08E6FE08E6FF22E6FB0856
:1007D000E6F908E6FA08E6CBF822BB010DE5822926
:1007E000F582E5833AF58302089F5007E92582F8F0
:1007F0000207CDBBFE07E92582F80208ABE5822996
:10080000F582E5833AF5830208B8ECF608EDF608C0
:10081000EEF608EFF622ECF0A3EDF0A3EEF0A3EF76
:10082000F022A8828583F0D083D082120839120882
:1008300039120839120839E473E493A3C583C5F06B
:10084000C583C8C582C8F0A3C583C5F0C583C8C524
:1008500082C822BB010DE58229F582E5833AF58342
:100860000208225007E92582F80208D4BBFE07E9F6
:100870002582F80208ED22E0FCA3E0FDA3E0FEA340
:10088000E0FF22E2FC08E2FD08E2FE08E2FF22E4CB
:1008900093FC740193FD740293FE740393FF22E0B2
:1008A000F8A3E0F9A3E0FAA3E0FB22E2FB08E2F9F7
:1008B00008E2FA08E2CBF822E493F8740193F974A1
:1008C0000293FA740393FB22ECF208EDF208EEF2C5
:1008D00008EFF222D083D082E493F608740193F6F5
:1008E00008740293F608740393F6740473D083D0EB
:1008F00082E493F208740193F208740293F208748C
:100900000393F2740473E4900195F0900010E0FFFB
:10091000900195E0C39F505EE0FB25E025E0242395
:10092000F582E43401F58312082200000000EB2573
:10093000E02443F582E43401F583E4F0A3F0900170
:1009400095E0FF25E02453F582E43401F583E4F0DB
:10095000A3F0900120E0FBA3E0FAA3E0F975F00416
:10096000EFA4F58285F08312085300000000900187
:1009700095E004F0809512176FE4900195F09000D7
:1009800010E0FF900195E0FEC39F5069EE25E02541
:10099000E02423F582E43401F583C083C082E0FCC7
:1009A000A3E0FDA3E0FEA3E0FF900120E0FBA3E0B5
:1009B000FAA3E0F9900195E075F004A4F58285F0C2
:1009C000831207DAEF2BFFEE3AFEED39FDEC38FC2F
:1009D000D082D083120816900195E025E02453F5CB
:1009E00082E43401F583E475F0011205C6900195A7
:1009F000E004F08089C3900154E09405900153E035
:100A000094005003020976E4900195F0900010E004
:100A1000FF900195E0FEC39F4003020B35EE25E0F9
:100A20002453F582E43401F583E0FEA3E0FBAA063B
:100A3000E4F9F8900195E025E025E02423F582E42F
:100A40003401F583E0FCA3E0FDA3E0FEA3E0FF1288
:100A5000067D900196120816E47F787E69FDFC9071
:100A60000196E0F8A3E0F9A3E0FAA3E0FBD31207B4
:100A70000F403E900196E0FCA3E0FDA3E0FEA3E062
:100A80002458FFEE349EFEED34FFFDEC34FFFC9065
:100A90000195E0FB25E025E02400F582E43401F532
:100AA00083120816EB25E02455F876610876A880B5
:100AB0002E900195E0FB25E025E02400F582E4344A
:100AC00001F58312082200000000900196A3A3E024
:100AD000FEA3E0FFEB25E02455F8A60608A6079044
:100AE0000195E0FF25E02425F8E4F608F6EF25E07F
:100AF0002455F8E6FE08E6FFE0FD25E0246DF8A6A3
:100B00000608A607ED25E025E02423F582E434015C
:100B1000F58312082200000000900195E025E024F2
:100B200053F582E43401F583E4F0A3F0900195E0FD
:100B300004F0020A0C900097E004F022AB07E49066
:100B40000195F0A31208220000000090019AE4F041
:100B5000A37464F0A3E4F0A37464F0E4A3F0900041
:100B600019E0F5C290FB04EBF09001A17403F0A32F
:100B700074BBF0E4F5C375BB2775B310F5AAF5BED9
:100B8000F5BFF5BC75BD2175E61890FB05743BF00B
:100B9000E490FB09F090FB0A74F0F090FB0B743CBE
:100BA000F090FB0CF090FB0D7401F0E490019FF0CD
:100BB000900010E0FF90019FE0C39F502E90012015
:100BC000E0FBA3E0FAA3E0F990019FE0FF75F004D9
:100BD000A4F58285F0831208530000000074652F8D
:100BE000F8764690019FE004F080C5E4F5BC9001E2
:100BF0009FF090FB0674FFF090FB07F090FB08F06D
:100C0000E49001A0F0900010E0FF9001A0E0C39FED
:100C10005036121A1B90FB00E0FCA3E0FDA3E0FE9F
:100C2000A3E0FF900120E0FBA3E0FAA3E0F990012C
:100C3000A0E075F004A4F58285F08312079DD2D858
:100C40009001A0E004F080BDE490FB06F090FB076B
:100C5000F090FB08F09001A0F0900010E0FF9001F0
:100C6000A0E0C39F5057121A1B900120E0FBA3E0A5
:100C7000FAA3E0F99001A0E075F004A4F582E9255B
:100C800082F9EA35F0FAC003C002C00112073390BE
:100C9000FB00E0F8A3E0F9A3E0FAA3E0FBC3EF9BBD
:100CA000FFEE9AFEED99FDEC98FCD001D002D00346
:100CB000120783D2D89001A0E004F0809CE4900158
:100CC00095F09001A0F0900010E0FF9001A0E0C32B
:100CD0009F505A900120E0FBA3E0FAA3E0F99001B5
:100CE000A0E075F004A4F58285F08312075390010B
:100CF000A0E0FD25E02415F8A60608A607ED25E0EE
:100D00002415F8E6FE08E6FFD39001A2E09F9001CB
:100D1000A1E09E400A9001A0E02465F806800690BC
:100D20000195E004F09001A0E004F080999000109B
:100D3000E0FF900195E0C39F500F90019FE004F009
:100D4000E0C394325003020BF222C0E0C0F0C08333
:100D5000C082C0D075D00830FD03020F3320FC03E1
:100D6000020DE978B1E6F5FC53A1BFC2FF75100191
:100D7000AB12AA13A914851082758300120532F5EF
:100D800011C2FF43F92078B4761308768820FF1249
:100D900020FA0F78B5E6161870011678B5E61846F1
:100DA00070EB30FA03020F338511FC0510AB12AA69
:100DB00013A914851082758300120532F511C2FF44
:100DC00043F92078B4761308768820FF1220FA0FB2
:100DD00078B5E6161870011678B5E6184670EB7807
:100DE000B5E6184670BC020F3353A1BFC2FF7510A1
:100DF00000C2FF43F92078B4761308768820FF12EA
:100E000020FA0F78B5E6161870011678B5E6184680
:100E100070EB20FB4085FC1130FA03020F33749015
:100E20002510F8A6110510C2FF43F92078B47613F7
:100E300008768820FF1220FA0F78B5E616187001A0
:100E40001678B5E6184670EB85FC1178B5E61846BD
:100E500070C6020F33788FA6FCAB12AA13A914AF89
:100E60001005108F82758300120532F511C2FF4301
:100E7000F92078B4761308768820FF1220FA0F78CC
:100E8000B5E6161870011678B5E6184670EB30FC1A
:100E900075788FE6FF54F064806003020F337400AE
:100EA0002FF582E43400F583E075F003A424C0F547
:100EB00082E4341FF583E493F9740193FA74029386
:100EC000900181C9F0A3EAF0A3E9F020FA6590014E
:100ED00081E0FBA3E475F0011205DCA9F0FA12052C
:100EE00019F5FCC2FF43F92078B476130876882000
:100EF000FFD920FAD678B5E6161870011678B5E64F
:100F0000184670EB80C5788FE6062490F8A6FCC2E0
:100F1000FF43F92078B4761308768820FF1220FA70
:100F20000F78B5E6161870011678B5E6184670EB1E
:100F300030FAD3C2FF43F92043A140789C7601D018
:100F4000D0D082D083D0F0D0E032E4900194F09001
:100F50000010E0FF900194E0C39F40030210BB909B
:100F60000120E0FBA3E0FAA3E0F9900194E075F022
:100F700004A4F58285F083120753EC4D4E4F7003A5
:100F80000210A2900194E025E025E02400F582E41F
:100F90003401F583E0F8A3E0F9A3E0FAA3E0FBD382
:100FA00012070F40037F0322900120E0FBA3E0FA29
:100FB000A3E0F9900194E075F004A4F58285F08334
:100FC000120753900194E025E025E02400F582E427
:100FD0003401F583E0F8A3E0F9A3E0FAA3E0FBC352
:100FE000EF9BFFEE9AFEED99FDEC98FC78B61208A7
:100FF0000AE47FFF7EFFFDFC78B61207CDC312071F
:101000000F40037F032278B61207C1900194E0FDE0
:1010100025E02445F8A60608A607ED25E0246DF88E
:10102000E6FE08E6FFE4FCFD78BA12080AE47F1F3A
:10103000FEFDFC78BA1207CD1205F278B61207CD84
:10104000EF2BFFEE3AFEED39FDEC38FC7805120788
:1010500020900194E0FD25E0246DF8A60608A6077F
:10106000ED25E02456F9ED25E02445F8E6FE08E6F6
:10107000FFD397EE1997401BE025E02456F8C3EF05
:1010800096FFEE1896FEE025E02425F8A60608A6B1
:1010900007801F900194E025E02425F8E4F608F687
:1010A0008010900194E025E02425F8E4F608F67F0E
:1010B0000322900194E004F0020F4F7F0722E49096
:1010C000019CF0A3F0A3F0A3F07815E6FE08E6FF7C
:1010D000900198EEF0A3EFF0A3EEF0A3EFF0E4FFA1
:1010E000F9FE900010E0FDEEC39D5055EE25E02482
:1010F00015F8E6FC08E6FDC3900199E09D90019883
:10110000E09C5011AF06EE25E02415F8E6FD08E658
:10111000CDF0A3EDF0EE25E02415F8E6FC08E6FDA1
:10112000D390019BE09D90019AE09C4011A906EEAE
:1011300025E02415F8E6FD08E6CDF0A3EDF00E80DD
:10114000A1900098EFF0A3E9F0E4900198F0A3F0EB
:10115000FE900010E0FDEEC39D507AEE25E02415D0
:10116000F8E6FC08E6FDD39423EC940040069001D9
:101170009FE004F0D3ED942DEC9400400690019C88
:10118000E004F0D3ED9437EC9400400690019DE02C
:1011900004F0D3ED9441EC9400400690019EE004ED
:1011A000F0900098E06E6029EE25E02415F8E6FC4A
:1011B00008E6FDC3900199E09D900198E09C5011D4
:1011C000AF06EE25E02415F8E6FD08E6CDF0A3ED28
:1011D000F00E02115190009DEFF090019FE0900001
:1011E0009FF090019CE090009AF090019DE09000AB
:1011F0009BF090019EE090009CF0224101B2FF48DC
:1012000001A30001020408102040500184012C00B9
:10121000AA012C012C012C012C012C012C48017756
:10122000010204081020408041017F00610000009D
:101230000D11FFFFFFFFFFFFFFFFFFFFFFFFFFFF9E
:101240000208388000000032180C060000280A044A
:1012500002000000000000000905FFFF000000AAD6
:1012600000000000000000000064646464646464C2
:10127000640000000000000000000000000000000A
:10128000000000000000000000000000000000005E
:101290000000000000000000012C00AA012C012C1D
:1012A000012C012C012C012C012C012C012C012CD6
:1012B000000102030405060708090A0B0C0D0E0FB6
:1012C00001FFFF000080000000000000000000009F
:1012D000000000000000000000000000000000000E
:1012E00000000000000000000000000000000000FE
:1012F00000000000000000000000000000000000EE
:1013000000000000000000000000000000000000DD
:1013100000000000000000000000000000000000CD
:10132000000000000000000000000000000000FFBE
:101330000075E61875CF1F75C30175BB3875B3808E
:101340009001957407F0900195E0FF7021047E00F4
:10135000A807088005C333CE33CED8F9FF90FB0A27
:10136000E0FDEF5D7008900195E014F080D89001E9
:1013700095E0FF7401A807088002C333D8FC90FBF6
:101380000AF090FB0B7401F090FB0CF090019612A8
:10139000082200000000E4900195F0900010E0FFAA
:1013A000900195E0FEC39F505274002EF582E43404
:1013B00000F583E0FFF4603B121A2F90FB00E0FC85
:1013C000A3E0FDA3E0FEA3E0FF900196E0F8A3E018
:1013D000F9A3E0FAA3E0FBC312070F501490FB003F
:1013E000E0FCA3E0FDA3E0FEA3E0FF90019612085D
:1013F00016D2D8900195E004F080A0900196E0FC10
:10140000A3E0FDA3E0FEA3E0FFE47B02FAF9F812FB
:1014100005F2900196120816900196E0FCA3E0FDFB
:10142000A3E0FEA3E0FF7810120720900020EFF069
:10143000900196E0FCA3E0FDA3E0FEA3E0FF7808A6
:10144000120720900021EFF0900196A3A3A3E09053
:101450000022F022E4FF12004EE4FCFDC004C005AF
:10146000C006C0077825E6FE08E6FFE47B64FAF9CB
:10147000F81205F2D003D002D001D00012067D9000
:101480000196EEF0A3EFF09001957401F09000103A
:10149000E0FF900195E0F9C39F505EAF0112004E4E
:1014A000E4FCFDC004C005C006C007900195E0251E
:1014B000E02425F8E6FE08E6FFE47B64FAF9F8127A
:1014C00005F2D003D002D001D00012067D90019821
:1014D000EEF0A3EFF0D3900197E09F900196E09E8D
:1014E000400F900198E0FFA3E0900196CFF0A3EFAA
:1014F000F0900195E004F08094E4900195F0900064
:1015000010E0FF900195E0F9C39F5068AF01120011
:101510004EE4FCFDC004C005C006C007900195E084
:1015200025E02425F8E6FE08E6FFE47B64FAF9F8F6
:101530001205F2D003D002D001D00012067D900136
:1015400098EEF0A3EFF0900196E0FCA3E0FDC3EF6E
:101550009DFDEE9CFC900195E0FB25E02415F8A68E
:101560000408A605EB25E02435F8A60608A607E042
:1015700004F0808A229001947408F012145412200E
:10158000B3BF010A900092E0FF12007680030216BA
:10159000757F02121F4DD37886E69F18E69E4002A3
:1015A0008015787FE6FE08E6FFD39400EE940040B5
:1015B00014EF64014E7006121EF30216707880E676
:1015C0001618700116900092E09001B2F02410609D
:1015D0005414605F24F27073786DE6FE08E6FF082D
:1015E000E6FC08E6FD12208ED3EF9450EE94004006
:1015F0000A788C06E6187009068006E4788BF608EF
:10160000F67F07121F4DD3788CE69F18E69E4006A2
:101610009001947403F0121EF3E4787DF608F60846
:10162000F608F68050121EF37880E6184670467F62
:1016300006800C121EF37880E6184670387F04127C
:101640001F4D787FA60608A607802AE4787FF60853
:10165000F69001B2E0FF121CC3787E06E618700116
:10166000067F05121F4DD3787EE69F18E69E400543
:1016700012000E8000900194E0FF22121BA11200C4
:10168000039000907401F0121F75121D16121E5C5B
:1016900043D40843DC0853E4F7D2B390009E74FFB0
:1016A000F0121EC443D40343E40343B003900090FC
:1016B000E024FD603114603924FE604E146055143E
:1016C000606524077067121DA9121F75121C6D1228
:1016D00020C112000E121EC47F0A121F4D788DA663
:1016E0000608A6078041121C6D1220C112000E8050
:1016F000369001ADE004F070069001ACE004F01209
:10170000176F9000907406F08023120F4A9000909B
:10171000EFF08019121575900090EFF0789DE67843
:10172000B1F6121B2F80069000907404F09000FB1D
:10173000E06029E4789CF6C2B3F0900175F0A3F064
:10174000900176E004F07006900175E004F09001DD
:1017500075E07004A3E0645070E6D2B3789CE66054
:1017600006789DE64408F6D2D8121DEA0216AD901E
:10177000001AE090019CF0E490019AF0900010E0D3
:10178000FF90019AE0FEC39F5024900120E0FBA34C
:10179000E0FAA3E0F975F004EEA4F58285F0831277
:1017A00008530000000090019AE004F080CE75E636
:1017B0001875CF1F90FB0674FFF090FB07F090FBAD
:1017C00008F0900018E090FB04F0900020E0F5C3D2
:1017D000A3E0F5BBA3E0F5B3E4F5BC90019AF0906B
:1017E000019CE0FF90019AE0C39F5069E4A3F09050
:1017F0000010E0FF90019BE0C39F5050121A1B9015
:101800000120E0FBA3E0FAA3E0F990019BE075F072
:1018100004A4F582E92582F9EA35F0FAC002C00194
:1018200012073390FB00E0F8A3E0F9A3E0FAA3E08D
:101830002FFFEA3EFEE93DFDE83CFCD001D002125C
:101840000783D2D890019BE004F080A390019AE036
:1018500004F00217DF75E61875CF1F221210BE9034
:101860000010E0FF900091E0FEC39F5013EE25E0D2
:101870002436F9C3E7943219E794004003E0FF22CD
:10188000900098E0FF25E02416F9D3E7943219E799
:1018900094004008900091E0F46004227FFF2278D9
:1018A0006DE6FE08E6FFD3787096EE18964007E4E2
:1018B000900197F080069001977401F0900098E0F5
:1018C000FD900197E06D703A786FE6FC08E6FD1236
:1018D000208E900195EEF0A3EFF07845E6FE08E645
:1018E000FF08E6FC08E6FD12208E900196E0243207
:1018F000FD900195E03400FCC3EF9DEE9C50407FCD
:10190000FF22900098E025E02445F8E6FC08E6FD7B
:10191000900197E025E02446F9D3E79D19E79C4024
:10192000037FFF22900098E025E0246EF8E6243241
:10193000FF18E436FEC3ED9FEC9E50037FFF22901C
:101940000098E0FF2243F580C2DC0020DCF790FF26
:1019500003E493FFF4FE90FF02E493FDB506048DCB
:101960009A8003759A4C90FF05E493FFF4FE90FF74
:1019700004E493FDB506048D84800375840490000F
:10198000007F007E04E4F0A3DFFCDEFA78FFE4F6DB
:10199000D8FD7581BD0219D602000002167BE493C2
:1019A000A3F8E493A34003F68001F208DFF4802952
:1019B000E493A3F85407240CC8C333C4540F442041
:1019C000C8834004F456800146F6DFE4800B010230
:1019D0000408102040809011FBE47E019360BCA3BA
:1019E000FF543F30E509541FFEE493A360010ECF7E
:1019F00054C025E060A840B8E493A3FAE493A3F8A8
:101A0000E493A3C8C582C8CAC583CAF0A3C8C58267
:101A1000C8CAC583CADFE9DEE780BEE0FF2465F8F7
:101A2000E6F5BD74002FF582E43400F583E0FFEFA6
:101A3000131313541FFEEF540790203F93FDEFD371
:101A4000941740037F0022EE14600F1460142402E8
:101A50007018ED42E1ED42D98013ED42E2ED42DA39
:101A6000800BED42E3ED42DB80037F0022EF442058
:101A7000F5E675C70D00000000000043C101E5C197
:101A800030E1FB53C1FD75E618EE14600F146014CD
:101A900024027018EDF452E152D98013EDF452E2B1
:101AA00052DA800BEDF452E352DB80037F0022E434
:101AB000F5C77F0122C0E0C0F0C083C082C0D075EE
:101AC000D000C000C004C005C006C007C28D758C20
:101AD000FD758A869001B4E004F070069001B3E0D1
:101AE00004F09001B3E0FEA3E0FF7C077DD0120577
:101AF00071ED4C70259001ACE0FEA3E0FFD3940A99
:101B0000EE940040089001AEEEF0A3EFF09001AC2F
:101B1000E4F0A3F09001B3F0A3F0D007D006D00515
:101B2000D004D000D0D0D082D083D0F0D0E032E446
:101B3000900194F0900194E0FF25E02435F8E6FC54
:101B400008E6FDEF75F008A424A3F8A60408A6058E
:101B5000E0FF25E02425F8E6FC08E6FDEF75F00837
:101B6000A424A5F8A60408A605900120E0FBA3E0A4
:101B7000FAA3E0F9900194E075F004A4F58285F0F1
:101B8000831207537808120720900194E075F0083B
:101B9000A424A7F8A60608A607E004F0E0B402947F
:101BA0002243850343910190FF05E493FFF4FE90E7
:101BB000FF04E493FDB506048D84800375840490CE
:101BC00000F2EDF0A3EFF090FF03E493FFF4FE903A
:101BD000FF02E493FDB506048D9A8003759A4C903C
:101BE00000F0EDF0A3EFF053E12053D52053802017
:101BF00053E23C53DD3C53903C53E30353E5035322
:101C0000A00353E40B53B00B22900019E0F5C290EF
:101C10000018E090FB04F0900020E0F5C3A3E0F58D
:101C2000BBA3E0F5B3E4F5AA900014E0F5BEA3E091
:101C3000F5BFA3E0F5BCA3E0F5BD75E61890FB0584
:101C4000743BF090FB0674FFF090FB07F090FB08EC
:101C5000F0E490FB09F090FB0A74F0F090FB0B7439
:101C60003CF090FB0CF090FB0D7401F02290009181
:101C700074FFF0A3F0E4A3F0787DF608F67881F61F
:101C800008F608F608F608F608F608F608F6787F6B
:101C9000F608F6788BF608F6FF900010E0FEEFC32A
:101CA0009E501F900120E0FBA3E0FAA3E0F975F03D
:101CB00004EFA4F58285F083120853000000000FA2
:101CC00080D722E4FE900010E0FDEFC39D501E90EF
:101CD0000091E06F6017E4787DF608F674A32FF5A5
:101CE00082E43401F583E0FE900091EFF0900091E2
:101CF000E0FF90009EE06F6014EF14600304700D2D
:101D00009000FBE0700704F0EE04789DF6900091DF
:101D1000E090009EF022E4789DF608760908F60827
:101D2000F6FFEF75F008A424A1F87600087632EFEC
:101D300075F008A424A3F8E4F608F6EF75F008A4FB
:101D400024A5F8E4F608F6EF75F008A424A7F8E453
:101D5000F608F60FEFB402CA751200751300751479
:101D60009D22EF131313541FFEEF54072477F582BF
:101D7000E43401F583E0FFEE14601214601A2402CB
:101D80007021EF42E1EF42D9EF42D18019EF42E2F8
:101D9000EF42DAEF42D2800EEF42E3EF42DBEF4256
:101DA000D380037F00227F012290FFFEE493FFF4A3
:101DB000FEA3E493FDB5060A8D8F90002F74AAF060
:101DC0008009758F2590002F74FFF075C60C900068
:101DD000F4EDF0A3EFF0E4F5C7F5C175CE4275D68A
:101DE000061220A4122020D2AF227890E6FF6032A3
:101DF000E4F6EF24FE600C2482600D247F70237FC4
:101E0000018002E4FF02205C121F21122076121FC3
:101E10009D53DCF753E4F753D4F7D2B3900090749A
:101E200001F022E4FEEE75F003A42447F582E434C9
:101E300020F583E493FDF4601FEFB50516EE75F011
:101E400003A42448F582E43420F583E493FE74016E
:101E500093FF220EEEB407CDE4FEFF227E007FE06A
:101E6000E4FDED25E024E1F582E4341FF583E493FD
:101E7000F4601EED25E024E2F582E4341FF583E4EE
:101E800093FCEF2DF582E43EF583ECF00DEDB410FC
:101E9000D12290001FE0FE900092E06F6005EFF00D
:101EA000E4A3F0900092E0B4FF02E4FEAF069000DD
:101EB00093E004F0C39F50037F00229000937404CA
:101EC000F07F012243B14053FAF790FFF8E493B456
:101ED000F80B43FA0443F90243F901800353FAFB78
:101EE00043F90243F90153F9BF75FB4053FAFD432F
:101EF000A14022E4787DF608F690009174FFF090FE
:101F0000009EE0FFF46013EF14600304700C900077
:101F1000FB7401F0789DE64408F690009E74FFF093
:101F200022E4F5D9F5D1F5E1F5D57580FFF5DAF5BF
:101F3000D2F5E2F5DD7590FFF5DBF5D3F5E3F5E5D8
:101F400075A0FF43DC0843E40853D4F7229000E077
:101F5000EFB4FF057F017E0022E5822FF582E43594
:101F600083F583E0FB9001AEE0FCA3E0FDAF037ED0
:101F70000012055F22E4900097F09001ACF0A3F00E
:101F80009001AEF0A37420F090002A74FFF090014D
:101F9000207401F0A37400F0A374A0F022AFD65314
:101FA000C7FBE4F5D6C2D953A1EF539AF05391FE83
:101FB0005387FC43870200004391018FD60220A47F
:101FC00000004500006D00005500005D0000150098
:101FD000001D00002500002D01009100006500009B
:101FE0006700020101020103010401051E06050745
:101FF00002080A09020A020B280C3C0D1E0E01FF02
:1020000001E4FD900010E0FFEDC39F501274002D1D
:10201000F582E43400F583E0FF121D620D80E422B6
:10202000438901C28DD2A953B7FD53B8FDE4900195
:10203000B3F0A3F0758CFD758A86D28CD2AF2201E5
:1020400002040810204080010521060995020CF1C8
:102050000C0F411411A8041662FF00FFEFB4011128
:10206000C293C2927F0A121F4D788DA60608A6075A
:1020700022D293D2922243DC0843E40853D4F7D20D
:10208000B353B2FDE4F5BA5391DF43A10222D3EF7B
:102090009DEE9C4007EF9DFFEE9CFE22C3ED9FFF4F
:1020A000EC9EFE22D2DFC2DA538E1F438EA0D2D81E
:1020B000D2D92212185C121E92EF7002FF227F0109
:1020C00022122001021C0953B2DF32FFFFFFFFFF83
:1020D000FFFFFFFFFFFFFFFFFFFFFFFFFFFFFFFF10

:00000001FF
